{
  "address": "0x9fE46736679d2D9a65F0992F2272dE9f3c7fa6e0",
  "abi": [
    {
      "inputs": [],
      "payable": false,
      "stateMutability": "nonpayable",
      "type": "constructor"
    },
    {
      "anonymous": false,
      "inputs": [
        {
          "indexed": true,
          "internalType": "address",
          "name": "src",
          "type": "address"
        },
        {
          "indexed": true,
          "internalType": "address",
          "name": "dst",
          "type": "address"
        },
        {
          "indexed": false,
          "internalType": "uint256",
          "name": "amt",
          "type": "uint256"
        }
      ],
      "name": "Approval",
      "type": "event"
    },
    {
      "anonymous": true,
      "inputs": [
        {
          "indexed": true,
          "internalType": "bytes4",
          "name": "sig",
          "type": "bytes4"
        },
        {
          "indexed": true,
          "internalType": "address",
          "name": "caller",
          "type": "address"
        },
        {
          "indexed": false,
          "internalType": "bytes",
          "name": "data",
          "type": "bytes"
        }
      ],
      "name": "LOG_CALL",
      "type": "event"
    },
    {
      "anonymous": false,
      "inputs": [
        {
          "indexed": true,
          "internalType": "address",
          "name": "caller",
          "type": "address"
        },
        {
          "indexed": true,
          "internalType": "address",
          "name": "tokenOut",
          "type": "address"
        },
        {
          "indexed": false,
          "internalType": "uint256",
          "name": "tokenAmountOut",
          "type": "uint256"
        }
      ],
      "name": "LOG_EXIT",
      "type": "event"
    },
    {
      "anonymous": false,
      "inputs": [
        {
          "indexed": true,
          "internalType": "address",
          "name": "caller",
          "type": "address"
        },
        {
          "indexed": true,
          "internalType": "address",
          "name": "tokenIn",
          "type": "address"
        },
        {
          "indexed": false,
          "internalType": "uint256",
          "name": "tokenAmountIn",
          "type": "uint256"
        }
      ],
      "name": "LOG_JOIN",
      "type": "event"
    },
    {
      "anonymous": false,
      "inputs": [
        {
          "indexed": true,
          "internalType": "address",
          "name": "caller",
          "type": "address"
        },
        {
          "indexed": true,
          "internalType": "address",
          "name": "tokenIn",
          "type": "address"
        },
        {
          "indexed": true,
          "internalType": "address",
          "name": "tokenOut",
          "type": "address"
        },
        {
          "indexed": false,
          "internalType": "uint256",
          "name": "tokenAmountIn",
          "type": "uint256"
        },
        {
          "indexed": false,
          "internalType": "uint256",
          "name": "tokenAmountOut",
          "type": "uint256"
        }
      ],
      "name": "LOG_SWAP",
      "type": "event"
    },
    {
      "anonymous": false,
      "inputs": [
        {
          "indexed": true,
          "internalType": "address",
          "name": "src",
          "type": "address"
        },
        {
          "indexed": true,
          "internalType": "address",
          "name": "dst",
          "type": "address"
        },
        {
          "indexed": false,
          "internalType": "uint256",
          "name": "amt",
          "type": "uint256"
        }
      ],
      "name": "Transfer",
      "type": "event"
    },
    {
      "constant": true,
      "inputs": [],
      "name": "BONE",
      "outputs": [
        {
          "internalType": "uint256",
          "name": "",
          "type": "uint256"
        }
      ],
      "payable": false,
      "stateMutability": "view",
      "type": "function"
    },
    {
      "constant": true,
      "inputs": [],
      "name": "BPOW_PRECISION",
      "outputs": [
        {
          "internalType": "uint256",
          "name": "",
          "type": "uint256"
        }
      ],
      "payable": false,
      "stateMutability": "view",
      "type": "function"
    },
    {
      "constant": true,
      "inputs": [],
      "name": "EXIT_FEE",
      "outputs": [
        {
          "internalType": "uint256",
          "name": "",
          "type": "uint256"
        }
      ],
      "payable": false,
      "stateMutability": "view",
      "type": "function"
    },
    {
      "constant": true,
      "inputs": [],
      "name": "INIT_POOL_SUPPLY",
      "outputs": [
        {
          "internalType": "uint256",
          "name": "",
          "type": "uint256"
        }
      ],
      "payable": false,
      "stateMutability": "view",
      "type": "function"
    },
    {
      "constant": true,
      "inputs": [],
      "name": "MAX_BOUND_TOKENS",
      "outputs": [
        {
          "internalType": "uint256",
          "name": "",
          "type": "uint256"
        }
      ],
      "payable": false,
      "stateMutability": "view",
      "type": "function"
    },
    {
      "constant": true,
      "inputs": [],
      "name": "MAX_BPOW_BASE",
      "outputs": [
        {
          "internalType": "uint256",
          "name": "",
          "type": "uint256"
        }
      ],
      "payable": false,
      "stateMutability": "view",
      "type": "function"
    },
    {
      "constant": true,
      "inputs": [],
      "name": "MAX_FEE",
      "outputs": [
        {
          "internalType": "uint256",
          "name": "",
          "type": "uint256"
        }
      ],
      "payable": false,
      "stateMutability": "view",
      "type": "function"
    },
    {
      "constant": true,
      "inputs": [],
      "name": "MAX_IN_RATIO",
      "outputs": [
        {
          "internalType": "uint256",
          "name": "",
          "type": "uint256"
        }
      ],
      "payable": false,
      "stateMutability": "view",
      "type": "function"
    },
    {
      "constant": true,
      "inputs": [],
      "name": "MAX_OUT_RATIO",
      "outputs": [
        {
          "internalType": "uint256",
          "name": "",
          "type": "uint256"
        }
      ],
      "payable": false,
      "stateMutability": "view",
      "type": "function"
    },
    {
      "constant": true,
      "inputs": [],
      "name": "MAX_TOTAL_WEIGHT",
      "outputs": [
        {
          "internalType": "uint256",
          "name": "",
          "type": "uint256"
        }
      ],
      "payable": false,
      "stateMutability": "view",
      "type": "function"
    },
    {
      "constant": true,
      "inputs": [],
      "name": "MAX_WEIGHT",
      "outputs": [
        {
          "internalType": "uint256",
          "name": "",
          "type": "uint256"
        }
      ],
      "payable": false,
      "stateMutability": "view",
      "type": "function"
    },
    {
      "constant": true,
      "inputs": [],
      "name": "MIN_BALANCE",
      "outputs": [
        {
          "internalType": "uint256",
          "name": "",
          "type": "uint256"
        }
      ],
      "payable": false,
      "stateMutability": "view",
      "type": "function"
    },
    {
      "constant": true,
      "inputs": [],
      "name": "MIN_BOUND_TOKENS",
      "outputs": [
        {
          "internalType": "uint256",
          "name": "",
          "type": "uint256"
        }
      ],
      "payable": false,
      "stateMutability": "view",
      "type": "function"
    },
    {
      "constant": true,
      "inputs": [],
      "name": "MIN_BPOW_BASE",
      "outputs": [
        {
          "internalType": "uint256",
          "name": "",
          "type": "uint256"
        }
      ],
      "payable": false,
      "stateMutability": "view",
      "type": "function"
    },
    {
      "constant": true,
      "inputs": [],
      "name": "MIN_FEE",
      "outputs": [
        {
          "internalType": "uint256",
          "name": "",
          "type": "uint256"
        }
      ],
      "payable": false,
      "stateMutability": "view",
      "type": "function"
    },
    {
      "constant": true,
      "inputs": [],
      "name": "MIN_WEIGHT",
      "outputs": [
        {
          "internalType": "uint256",
          "name": "",
          "type": "uint256"
        }
      ],
      "payable": false,
      "stateMutability": "view",
      "type": "function"
    },
    {
      "constant": true,
      "inputs": [
        {
          "internalType": "address",
          "name": "src",
          "type": "address"
        },
        {
          "internalType": "address",
          "name": "dst",
          "type": "address"
        }
      ],
      "name": "allowance",
      "outputs": [
        {
          "internalType": "uint256",
          "name": "",
          "type": "uint256"
        }
      ],
      "payable": false,
      "stateMutability": "view",
      "type": "function"
    },
    {
      "constant": false,
      "inputs": [
        {
          "internalType": "address",
          "name": "dst",
          "type": "address"
        },
        {
          "internalType": "uint256",
          "name": "amt",
          "type": "uint256"
        }
      ],
      "name": "approve",
      "outputs": [
        {
          "internalType": "bool",
          "name": "",
          "type": "bool"
        }
      ],
      "payable": false,
      "stateMutability": "nonpayable",
      "type": "function"
    },
    {
      "constant": true,
      "inputs": [
        {
          "internalType": "address",
          "name": "whom",
          "type": "address"
        }
      ],
      "name": "balanceOf",
      "outputs": [
        {
          "internalType": "uint256",
          "name": "",
          "type": "uint256"
        }
      ],
      "payable": false,
      "stateMutability": "view",
      "type": "function"
    },
    {
      "constant": false,
      "inputs": [
        {
          "internalType": "address",
          "name": "token",
          "type": "address"
        },
        {
          "internalType": "uint256",
          "name": "balance",
          "type": "uint256"
        },
        {
          "internalType": "uint256",
          "name": "denorm",
          "type": "uint256"
        }
      ],
      "name": "bind",
      "outputs": [],
      "payable": false,
      "stateMutability": "nonpayable",
      "type": "function"
    },
    {
      "constant": true,
      "inputs": [
        {
          "internalType": "uint256",
          "name": "tokenBalanceIn",
          "type": "uint256"
        },
        {
          "internalType": "uint256",
          "name": "tokenWeightIn",
          "type": "uint256"
        },
        {
          "internalType": "uint256",
          "name": "tokenBalanceOut",
          "type": "uint256"
        },
        {
          "internalType": "uint256",
          "name": "tokenWeightOut",
          "type": "uint256"
        },
        {
          "internalType": "uint256",
          "name": "tokenAmountOut",
          "type": "uint256"
        },
        {
          "internalType": "uint256",
          "name": "swapFee",
          "type": "uint256"
        }
      ],
      "name": "calcInGivenOut",
      "outputs": [
        {
          "internalType": "uint256",
          "name": "tokenAmountIn",
          "type": "uint256"
        }
      ],
      "payable": false,
      "stateMutability": "pure",
      "type": "function"
    },
    {
      "constant": true,
      "inputs": [
        {
          "internalType": "uint256",
          "name": "tokenBalanceIn",
          "type": "uint256"
        },
        {
          "internalType": "uint256",
          "name": "tokenWeightIn",
          "type": "uint256"
        },
        {
          "internalType": "uint256",
          "name": "tokenBalanceOut",
          "type": "uint256"
        },
        {
          "internalType": "uint256",
          "name": "tokenWeightOut",
          "type": "uint256"
        },
        {
          "internalType": "uint256",
          "name": "tokenAmountIn",
          "type": "uint256"
        },
        {
          "internalType": "uint256",
          "name": "swapFee",
          "type": "uint256"
        }
      ],
      "name": "calcOutGivenIn",
      "outputs": [
        {
          "internalType": "uint256",
          "name": "tokenAmountOut",
          "type": "uint256"
        }
      ],
      "payable": false,
      "stateMutability": "pure",
      "type": "function"
    },
    {
      "constant": true,
      "inputs": [
        {
          "internalType": "uint256",
          "name": "tokenBalanceOut",
          "type": "uint256"
        },
        {
          "internalType": "uint256",
          "name": "tokenWeightOut",
          "type": "uint256"
        },
        {
          "internalType": "uint256",
          "name": "poolSupply",
          "type": "uint256"
        },
        {
          "internalType": "uint256",
          "name": "totalWeight",
          "type": "uint256"
        },
        {
          "internalType": "uint256",
          "name": "tokenAmountOut",
          "type": "uint256"
        },
        {
          "internalType": "uint256",
          "name": "swapFee",
          "type": "uint256"
        }
      ],
      "name": "calcPoolInGivenSingleOut",
      "outputs": [
        {
          "internalType": "uint256",
          "name": "poolAmountIn",
          "type": "uint256"
        }
      ],
      "payable": false,
      "stateMutability": "pure",
      "type": "function"
    },
    {
      "constant": true,
      "inputs": [
        {
          "internalType": "uint256",
          "name": "tokenBalanceIn",
          "type": "uint256"
        },
        {
          "internalType": "uint256",
          "name": "tokenWeightIn",
          "type": "uint256"
        },
        {
          "internalType": "uint256",
          "name": "poolSupply",
          "type": "uint256"
        },
        {
          "internalType": "uint256",
          "name": "totalWeight",
          "type": "uint256"
        },
        {
          "internalType": "uint256",
          "name": "tokenAmountIn",
          "type": "uint256"
        },
        {
          "internalType": "uint256",
          "name": "swapFee",
          "type": "uint256"
        }
      ],
      "name": "calcPoolOutGivenSingleIn",
      "outputs": [
        {
          "internalType": "uint256",
          "name": "poolAmountOut",
          "type": "uint256"
        }
      ],
      "payable": false,
      "stateMutability": "pure",
      "type": "function"
    },
    {
      "constant": true,
      "inputs": [
        {
          "internalType": "uint256",
          "name": "tokenBalanceIn",
          "type": "uint256"
        },
        {
          "internalType": "uint256",
          "name": "tokenWeightIn",
          "type": "uint256"
        },
        {
          "internalType": "uint256",
          "name": "poolSupply",
          "type": "uint256"
        },
        {
          "internalType": "uint256",
          "name": "totalWeight",
          "type": "uint256"
        },
        {
          "internalType": "uint256",
          "name": "poolAmountOut",
          "type": "uint256"
        },
        {
          "internalType": "uint256",
          "name": "swapFee",
          "type": "uint256"
        }
      ],
      "name": "calcSingleInGivenPoolOut",
      "outputs": [
        {
          "internalType": "uint256",
          "name": "tokenAmountIn",
          "type": "uint256"
        }
      ],
      "payable": false,
      "stateMutability": "pure",
      "type": "function"
    },
    {
      "constant": true,
      "inputs": [
        {
          "internalType": "uint256",
          "name": "tokenBalanceOut",
          "type": "uint256"
        },
        {
          "internalType": "uint256",
          "name": "tokenWeightOut",
          "type": "uint256"
        },
        {
          "internalType": "uint256",
          "name": "poolSupply",
          "type": "uint256"
        },
        {
          "internalType": "uint256",
          "name": "totalWeight",
          "type": "uint256"
        },
        {
          "internalType": "uint256",
          "name": "poolAmountIn",
          "type": "uint256"
        },
        {
          "internalType": "uint256",
          "name": "swapFee",
          "type": "uint256"
        }
      ],
      "name": "calcSingleOutGivenPoolIn",
      "outputs": [
        {
          "internalType": "uint256",
          "name": "tokenAmountOut",
          "type": "uint256"
        }
      ],
      "payable": false,
      "stateMutability": "pure",
      "type": "function"
    },
    {
      "constant": true,
      "inputs": [
        {
          "internalType": "uint256",
          "name": "tokenBalanceIn",
          "type": "uint256"
        },
        {
          "internalType": "uint256",
          "name": "tokenWeightIn",
          "type": "uint256"
        },
        {
          "internalType": "uint256",
          "name": "tokenBalanceOut",
          "type": "uint256"
        },
        {
          "internalType": "uint256",
          "name": "tokenWeightOut",
          "type": "uint256"
        },
        {
          "internalType": "uint256",
          "name": "swapFee",
          "type": "uint256"
        }
      ],
      "name": "calcSpotPrice",
      "outputs": [
        {
          "internalType": "uint256",
          "name": "spotPrice",
          "type": "uint256"
        }
      ],
      "payable": false,
      "stateMutability": "pure",
      "type": "function"
    },
    {
      "constant": true,
      "inputs": [],
      "name": "decimals",
      "outputs": [
        {
          "internalType": "uint8",
          "name": "",
          "type": "uint8"
        }
      ],
      "payable": false,
      "stateMutability": "view",
      "type": "function"
    },
    {
      "constant": false,
      "inputs": [
        {
          "internalType": "address",
          "name": "dst",
          "type": "address"
        },
        {
          "internalType": "uint256",
          "name": "amt",
          "type": "uint256"
        }
      ],
      "name": "decreaseApproval",
      "outputs": [
        {
          "internalType": "bool",
          "name": "",
          "type": "bool"
        }
      ],
      "payable": false,
      "stateMutability": "nonpayable",
      "type": "function"
    },
    {
      "constant": false,
      "inputs": [
        {
          "internalType": "uint256",
          "name": "poolAmountIn",
          "type": "uint256"
        },
        {
          "internalType": "uint256[]",
          "name": "minAmountsOut",
          "type": "uint256[]"
        }
      ],
      "name": "exitPool",
      "outputs": [],
      "payable": false,
      "stateMutability": "nonpayable",
      "type": "function"
    },
    {
      "constant": false,
      "inputs": [
        {
          "internalType": "address",
          "name": "tokenOut",
          "type": "address"
        },
        {
          "internalType": "uint256",
          "name": "tokenAmountOut",
          "type": "uint256"
        },
        {
          "internalType": "uint256",
          "name": "maxPoolAmountIn",
          "type": "uint256"
        }
      ],
      "name": "exitswapExternAmountOut",
      "outputs": [
        {
          "internalType": "uint256",
          "name": "poolAmountIn",
          "type": "uint256"
        }
      ],
      "payable": false,
      "stateMutability": "nonpayable",
      "type": "function"
    },
    {
      "constant": false,
      "inputs": [
        {
          "internalType": "address",
          "name": "tokenOut",
          "type": "address"
        },
        {
          "internalType": "uint256",
          "name": "poolAmountIn",
          "type": "uint256"
        },
        {
          "internalType": "uint256",
          "name": "minAmountOut",
          "type": "uint256"
        }
      ],
      "name": "exitswapPoolAmountIn",
      "outputs": [
        {
          "internalType": "uint256",
          "name": "tokenAmountOut",
          "type": "uint256"
        }
      ],
      "payable": false,
      "stateMutability": "nonpayable",
      "type": "function"
    },
    {
      "constant": false,
      "inputs": [],
      "name": "finalize",
      "outputs": [],
      "payable": false,
      "stateMutability": "nonpayable",
      "type": "function"
    },
    {
      "constant": true,
      "inputs": [
        {
          "internalType": "address",
          "name": "token",
          "type": "address"
        }
      ],
      "name": "getBalance",
      "outputs": [
        {
          "internalType": "uint256",
          "name": "",
          "type": "uint256"
        }
      ],
      "payable": false,
      "stateMutability": "view",
      "type": "function"
    },
    {
      "constant": true,
      "inputs": [],
      "name": "getColor",
      "outputs": [
        {
          "internalType": "bytes32",
          "name": "",
          "type": "bytes32"
        }
      ],
      "payable": false,
      "stateMutability": "view",
      "type": "function"
    },
    {
      "constant": true,
      "inputs": [],
      "name": "getController",
      "outputs": [
        {
          "internalType": "address",
          "name": "",
          "type": "address"
        }
      ],
      "payable": false,
      "stateMutability": "view",
      "type": "function"
    },
    {
      "constant": true,
      "inputs": [],
      "name": "getCurrentTokens",
      "outputs": [
        {
          "internalType": "address[]",
          "name": "tokens",
          "type": "address[]"
        }
      ],
      "payable": false,
      "stateMutability": "view",
      "type": "function"
    },
    {
      "constant": true,
      "inputs": [
        {
          "internalType": "address",
          "name": "token",
          "type": "address"
        }
      ],
      "name": "getDenormalizedWeight",
      "outputs": [
        {
          "internalType": "uint256",
          "name": "",
          "type": "uint256"
        }
      ],
      "payable": false,
      "stateMutability": "view",
      "type": "function"
    },
    {
      "constant": true,
      "inputs": [],
      "name": "getFinalTokens",
      "outputs": [
        {
          "internalType": "address[]",
          "name": "tokens",
          "type": "address[]"
        }
      ],
      "payable": false,
      "stateMutability": "view",
      "type": "function"
    },
    {
      "constant": true,
      "inputs": [
        {
          "internalType": "address",
          "name": "token",
          "type": "address"
        }
      ],
      "name": "getNormalizedWeight",
      "outputs": [
        {
          "internalType": "uint256",
          "name": "",
          "type": "uint256"
        }
      ],
      "payable": false,
      "stateMutability": "view",
      "type": "function"
    },
    {
      "constant": true,
      "inputs": [],
      "name": "getNumTokens",
      "outputs": [
        {
          "internalType": "uint256",
          "name": "",
          "type": "uint256"
        }
      ],
      "payable": false,
      "stateMutability": "view",
      "type": "function"
    },
    {
      "constant": true,
      "inputs": [
        {
          "internalType": "address",
          "name": "tokenIn",
          "type": "address"
        },
        {
          "internalType": "address",
          "name": "tokenOut",
          "type": "address"
        }
      ],
      "name": "getSpotPrice",
      "outputs": [
        {
          "internalType": "uint256",
          "name": "spotPrice",
          "type": "uint256"
        }
      ],
      "payable": false,
      "stateMutability": "view",
      "type": "function"
    },
    {
      "constant": true,
      "inputs": [
        {
          "internalType": "address",
          "name": "tokenIn",
          "type": "address"
        },
        {
          "internalType": "address",
          "name": "tokenOut",
          "type": "address"
        }
      ],
      "name": "getSpotPriceSansFee",
      "outputs": [
        {
          "internalType": "uint256",
          "name": "spotPrice",
          "type": "uint256"
        }
      ],
      "payable": false,
      "stateMutability": "view",
      "type": "function"
    },
    {
      "constant": true,
      "inputs": [],
      "name": "getSwapFee",
      "outputs": [
        {
          "internalType": "uint256",
          "name": "",
          "type": "uint256"
        }
      ],
      "payable": false,
      "stateMutability": "view",
      "type": "function"
    },
    {
      "constant": true,
      "inputs": [],
      "name": "getTotalDenormalizedWeight",
      "outputs": [
        {
          "internalType": "uint256",
          "name": "",
          "type": "uint256"
        }
      ],
      "payable": false,
      "stateMutability": "view",
      "type": "function"
    },
    {
      "constant": false,
      "inputs": [
        {
          "internalType": "address",
          "name": "token",
          "type": "address"
        }
      ],
      "name": "gulp",
      "outputs": [],
      "payable": false,
      "stateMutability": "nonpayable",
      "type": "function"
    },
    {
      "constant": false,
      "inputs": [
        {
          "internalType": "address",
          "name": "dst",
          "type": "address"
        },
        {
          "internalType": "uint256",
          "name": "amt",
          "type": "uint256"
        }
      ],
      "name": "increaseApproval",
      "outputs": [
        {
          "internalType": "bool",
          "name": "",
          "type": "bool"
        }
      ],
      "payable": false,
      "stateMutability": "nonpayable",
      "type": "function"
    },
    {
      "constant": true,
      "inputs": [
        {
          "internalType": "address",
          "name": "t",
          "type": "address"
        }
      ],
      "name": "isBound",
      "outputs": [
        {
          "internalType": "bool",
          "name": "",
          "type": "bool"
        }
      ],
      "payable": false,
      "stateMutability": "view",
      "type": "function"
    },
    {
      "constant": true,
      "inputs": [],
      "name": "isFinalized",
      "outputs": [
        {
          "internalType": "bool",
          "name": "",
          "type": "bool"
        }
      ],
      "payable": false,
      "stateMutability": "view",
      "type": "function"
    },
    {
      "constant": true,
      "inputs": [],
      "name": "isPublicSwap",
      "outputs": [
        {
          "internalType": "bool",
          "name": "",
          "type": "bool"
        }
      ],
      "payable": false,
      "stateMutability": "view",
      "type": "function"
    },
    {
      "constant": false,
      "inputs": [
        {
          "internalType": "uint256",
          "name": "poolAmountOut",
          "type": "uint256"
        },
        {
          "internalType": "uint256[]",
          "name": "maxAmountsIn",
          "type": "uint256[]"
        }
      ],
      "name": "joinPool",
      "outputs": [],
      "payable": false,
      "stateMutability": "nonpayable",
      "type": "function"
    },
    {
      "constant": false,
      "inputs": [
        {
          "internalType": "address",
          "name": "tokenIn",
          "type": "address"
        },
        {
          "internalType": "uint256",
          "name": "tokenAmountIn",
          "type": "uint256"
        },
        {
          "internalType": "uint256",
          "name": "minPoolAmountOut",
          "type": "uint256"
        }
      ],
      "name": "joinswapExternAmountIn",
      "outputs": [
        {
          "internalType": "uint256",
          "name": "poolAmountOut",
          "type": "uint256"
        }
      ],
      "payable": false,
      "stateMutability": "nonpayable",
      "type": "function"
    },
    {
      "constant": false,
      "inputs": [
        {
          "internalType": "address",
          "name": "tokenIn",
          "type": "address"
        },
        {
          "internalType": "uint256",
          "name": "poolAmountOut",
          "type": "uint256"
        },
        {
          "internalType": "uint256",
          "name": "maxAmountIn",
          "type": "uint256"
        }
      ],
      "name": "joinswapPoolAmountOut",
      "outputs": [
        {
          "internalType": "uint256",
          "name": "tokenAmountIn",
          "type": "uint256"
        }
      ],
      "payable": false,
      "stateMutability": "nonpayable",
      "type": "function"
    },
    {
      "constant": true,
      "inputs": [],
      "name": "name",
      "outputs": [
        {
          "internalType": "string",
          "name": "",
          "type": "string"
        }
      ],
      "payable": false,
      "stateMutability": "view",
      "type": "function"
    },
    {
      "constant": false,
      "inputs": [
        {
          "internalType": "address",
          "name": "token",
          "type": "address"
        },
        {
          "internalType": "uint256",
          "name": "balance",
          "type": "uint256"
        },
        {
          "internalType": "uint256",
          "name": "denorm",
          "type": "uint256"
        }
      ],
      "name": "rebind",
      "outputs": [],
      "payable": false,
      "stateMutability": "nonpayable",
      "type": "function"
    },
    {
      "constant": false,
      "inputs": [
        {
          "internalType": "address",
          "name": "manager",
          "type": "address"
        }
      ],
      "name": "setController",
      "outputs": [],
      "payable": false,
      "stateMutability": "nonpayable",
      "type": "function"
    },
    {
      "constant": false,
      "inputs": [
        {
          "internalType": "bool",
          "name": "public_",
          "type": "bool"
        }
      ],
      "name": "setPublicSwap",
      "outputs": [],
      "payable": false,
      "stateMutability": "nonpayable",
      "type": "function"
    },
    {
      "constant": false,
      "inputs": [
        {
          "internalType": "uint256",
          "name": "swapFee",
          "type": "uint256"
        }
      ],
      "name": "setSwapFee",
      "outputs": [],
      "payable": false,
      "stateMutability": "nonpayable",
      "type": "function"
    },
    {
      "constant": false,
      "inputs": [
        {
          "internalType": "address",
          "name": "tokenIn",
          "type": "address"
        },
        {
          "internalType": "uint256",
          "name": "tokenAmountIn",
          "type": "uint256"
        },
        {
          "internalType": "address",
          "name": "tokenOut",
          "type": "address"
        },
        {
          "internalType": "uint256",
          "name": "minAmountOut",
          "type": "uint256"
        },
        {
          "internalType": "uint256",
          "name": "maxPrice",
          "type": "uint256"
        }
      ],
      "name": "swapExactAmountIn",
      "outputs": [
        {
          "internalType": "uint256",
          "name": "tokenAmountOut",
          "type": "uint256"
        },
        {
          "internalType": "uint256",
          "name": "spotPriceAfter",
          "type": "uint256"
        }
      ],
      "payable": false,
      "stateMutability": "nonpayable",
      "type": "function"
    },
    {
      "constant": false,
      "inputs": [
        {
          "internalType": "address",
          "name": "tokenIn",
          "type": "address"
        },
        {
          "internalType": "uint256",
          "name": "maxAmountIn",
          "type": "uint256"
        },
        {
          "internalType": "address",
          "name": "tokenOut",
          "type": "address"
        },
        {
          "internalType": "uint256",
          "name": "tokenAmountOut",
          "type": "uint256"
        },
        {
          "internalType": "uint256",
          "name": "maxPrice",
          "type": "uint256"
        }
      ],
      "name": "swapExactAmountOut",
      "outputs": [
        {
          "internalType": "uint256",
          "name": "tokenAmountIn",
          "type": "uint256"
        },
        {
          "internalType": "uint256",
          "name": "spotPriceAfter",
          "type": "uint256"
        }
      ],
      "payable": false,
      "stateMutability": "nonpayable",
      "type": "function"
    },
    {
      "constant": true,
      "inputs": [],
      "name": "symbol",
      "outputs": [
        {
          "internalType": "string",
          "name": "",
          "type": "string"
        }
      ],
      "payable": false,
      "stateMutability": "view",
      "type": "function"
    },
    {
      "constant": true,
      "inputs": [],
      "name": "totalSupply",
      "outputs": [
        {
          "internalType": "uint256",
          "name": "",
          "type": "uint256"
        }
      ],
      "payable": false,
      "stateMutability": "view",
      "type": "function"
    },
    {
      "constant": false,
      "inputs": [
        {
          "internalType": "address",
          "name": "dst",
          "type": "address"
        },
        {
          "internalType": "uint256",
          "name": "amt",
          "type": "uint256"
        }
      ],
      "name": "transfer",
      "outputs": [
        {
          "internalType": "bool",
          "name": "",
          "type": "bool"
        }
      ],
      "payable": false,
      "stateMutability": "nonpayable",
      "type": "function"
    },
    {
      "constant": false,
      "inputs": [
        {
          "internalType": "address",
          "name": "src",
          "type": "address"
        },
        {
          "internalType": "address",
          "name": "dst",
          "type": "address"
        },
        {
          "internalType": "uint256",
          "name": "amt",
          "type": "uint256"
        }
      ],
      "name": "transferFrom",
      "outputs": [
        {
          "internalType": "bool",
          "name": "",
          "type": "bool"
        }
      ],
      "payable": false,
      "stateMutability": "nonpayable",
      "type": "function"
    },
    {
      "constant": false,
      "inputs": [
        {
          "internalType": "address",
          "name": "token",
          "type": "address"
        }
      ],
      "name": "unbind",
      "outputs": [],
      "payable": false,
      "stateMutability": "nonpayable",
      "type": "function"
    }
  ],
  "transactionHash": "0x71f780cf5ae83ddfc68a61370c0a91d38adb7124ba761047324878e3327a5d65",
  "args": [],
  "solcInputHash": "057890187792a409f7b397ecccb9d713",
  "bytecode": "0x60806040526040518060400160405280601381526020017f42616c616e63657220506f6f6c20546f6b656e000000000000000000000000008152506003908051906020019062000051929190620001a4565b506040518060400160405280600381526020017f4250540000000000000000000000000000000000000000000000000000000000815250600490805190602001906200009f929190620001a4565b506012600560006101000a81548160ff021916908360ff160217905550348015620000c957600080fd5b5033600660006101000a81548173ffffffffffffffffffffffffffffffffffffffff021916908373ffffffffffffffffffffffffffffffffffffffff16021790555033600560026101000a81548173ffffffffffffffffffffffffffffffffffffffff021916908373ffffffffffffffffffffffffffffffffffffffff160217905550620f4240670de0b6b3a7640000816200016157fe5b046007819055506000600660146101000a81548160ff0219169083151502179055506000600860006101000a81548160ff02191690831515021790555062000253565b828054600181600116156101000203166002900490600052602060002090601f016020900481019282601f10620001e757805160ff191683800117855562000218565b8280016001018555821562000218579182015b8281111562000217578251825591602001919060010190620001fa565b5b5090506200022791906200022b565b5090565b6200025091905b808211156200024c57600081600090555060010162000232565b5090565b90565b6198f280620002636000396000f3fe608060405234801561001057600080fd5b50600436106103db5760003560e01c80638d4e40831161020a578063bc694ea211610125578063d73dd623116100b8578063ec09302111610087578063ec093021146115a0578063f1b8a9b7146115be578063f8b2cb4f14611616578063f8d6aed41461166e578063fde924f7146116e2576103db565b8063d73dd6231461144c578063dd62ed3e146114b2578063e4a28a521461152a578063e4e1e53814611548576103db565b8063cc77828d116100f4578063cc77828d1461136d578063cd2ed8fb146113cc578063cf5e7bd3146113ea578063d4cadf681461142e576103db565b8063bc694ea2146112b4578063be3bbd2e146112d2578063c36596a614611331578063c6580d121461134f576103db565b8063a221ee491161019d578063b7b800a41161016c578063b7b800a4146111e6578063ba019dab14611204578063ba9530a614611222578063bc063e1a14611296576103db565b8063a221ee4914611075578063a9059cbb146110df578063b02f0b7314611145578063b0e0d136146111c8576103db565b8063948d8ce6116101d9578063948d8ce614610f5e57806395d89b4114610fb6578063992e2a92146110395780639a86139b14611057576103db565b80638d4e408314610ebc57806392eefe9b14610ede578063936c347714610f225780639381cd2b14610f40576103db565b806349b59552116102fa57806376c7a3c71161028d5780638656b6531161025c5780638656b65314610d72578063867378c514610de65780638929801214610e045780638c28cbe814610e78576103db565b806376c7a3c714610ba65780637c5e9ea414610bc45780638201aa3f14610c6157806382f652ad14610cfe576103db565b80635db34277116102c95780635db3427714610a105780636618846314610a7c5780636d06dfa014610ae257806370a0823114610b4e576103db565b806349b59552146108df5780634bb278f31461090f5780634f69c0d4146109195780635c1bbaf71461099c576103db565b8063218b538211610372578063313ce56711610341578063313ce567146107c957806334e19907146107ed5780633fdddaa21461081b57806346ab38f114610873576103db565b8063218b53821461067f57806323b872dd1461069d5780632f37b624146107235780633018205f1461077f576103db565b80631446a7ff116103ae5780631446a7ff1461055357806315e84af9146105cb57806318160ddd14610643578063189d00ca14610661576103db565b806302c96748146103e057806306fdde031461044c578063095ea7b3146104cf57806309a3bbe414610535575b600080fd5b610436600480360360608110156103f657600080fd5b81019080803573ffffffffffffffffffffffffffffffffffffffff1690602001909291908035906020019092919080359060200190929190505050611704565b6040518082815260200191505060405180910390f35b610454611cae565b6040518080602001828103825283818151815260200191508051906020019080838360005b83811015610494578082015181840152602081019050610479565b50505050905090810190601f1680156104c15780820380516001836020036101000a031916815260200191505b509250505060405180910390f35b61051b600480360360408110156104e557600080fd5b81019080803573ffffffffffffffffffffffffffffffffffffffff16906020019092919080359060200190929190505050611d50565b604051808215151515815260200191505060405180910390f35b61053d611e42565b6040518082815260200191505060405180910390f35b6105b56004803603604081101561056957600080fd5b81019080803573ffffffffffffffffffffffffffffffffffffffff169060200190929190803573ffffffffffffffffffffffffffffffffffffffff169060200190929190505050611e51565b6040518082815260200191505060405180910390f35b61062d600480360360408110156105e157600080fd5b81019080803573ffffffffffffffffffffffffffffffffffffffff169060200190929190803573ffffffffffffffffffffffffffffffffffffffff169060200190929190505050612108565b6040518082815260200191505060405180910390f35b61064b6123c0565b6040518082815260200191505060405180910390f35b6106696123ca565b6040518082815260200191505060405180910390f35b6106876123e4565b6040518082815260200191505060405180910390f35b610709600480360360608110156106b357600080fd5b81019080803573ffffffffffffffffffffffffffffffffffffffff169060200190929190803573ffffffffffffffffffffffffffffffffffffffff169060200190929190803590602001909291905050506123f0565b604051808215151515815260200191505060405180910390f35b6107656004803603602081101561073957600080fd5b81019080803573ffffffffffffffffffffffffffffffffffffffff1690602001909291905050506127f5565b604051808215151515815260200191505060405180910390f35b61078761284e565b604051808273ffffffffffffffffffffffffffffffffffffffff1673ffffffffffffffffffffffffffffffffffffffff16815260200191505060405180910390f35b6107d16128fb565b604051808260ff1660ff16815260200191505060405180910390f35b6108196004803603602081101561080357600080fd5b8101908080359060200190929190505050612912565b005b6108716004803603606081101561083157600080fd5b81019080803573ffffffffffffffffffffffffffffffffffffffff1690602001909291908035906020019092919080359060200190929190505050612ccb565b005b6108c96004803603606081101561088957600080fd5b81019080803573ffffffffffffffffffffffffffffffffffffffff1690602001909291908035906020019092919080359060200190929190505050613433565b6040518082815260200191505060405180910390f35b61090d600480360360208110156108f557600080fd5b81019080803515159060200190929190505050613966565b005b610917613c20565b005b61099a6004803603604081101561092f57600080fd5b81019080803590602001909291908035906020019064010000000081111561095657600080fd5b82018360208201111561096857600080fd5b8035906020019184602083028401116401000000008311171561098a57600080fd5b9091929391929390505050613f9a565b005b6109fa600480360360c08110156109b257600080fd5b810190808035906020019092919080359060200190929190803590602001909291908035906020019092919080359060200190929190803590602001909291905050506144d4565b6040518082815260200191505060405180910390f35b610a6660048036036060811015610a2657600080fd5b81019080803573ffffffffffffffffffffffffffffffffffffffff1690602001909291908035906020019092919080359060200190929190505050614590565b6040518082815260200191505060405180910390f35b610ac860048036036040811015610a9257600080fd5b81019080803573ffffffffffffffffffffffffffffffffffffffff16906020019092919080359060200190929190505050614a7b565b604051808215151515815260200191505060405180910390f35b610b3860048036036060811015610af857600080fd5b81019080803573ffffffffffffffffffffffffffffffffffffffff1690602001909291908035906020019092919080359060200190929190505050614d03565b6040518082815260200191505060405180910390f35b610b9060048036036020811015610b6457600080fd5b81019080803573ffffffffffffffffffffffffffffffffffffffff169060200190929190505050615265565b6040518082815260200191505060405180910390f35b610bae6152ad565b6040518082815260200191505060405180910390f35b610c44600480360360a0811015610bda57600080fd5b81019080803573ffffffffffffffffffffffffffffffffffffffff16906020019092919080359060200190929190803573ffffffffffffffffffffffffffffffffffffffff16906020019092919080359060200190929190803590602001909291905050506152c5565b604051808381526020018281526020019250505060405180910390f35b610ce1600480360360a0811015610c7757600080fd5b81019080803573ffffffffffffffffffffffffffffffffffffffff16906020019092919080359060200190929190803573ffffffffffffffffffffffffffffffffffffffff1690602001909291908035906020019092919080359060200190929190505050615ad9565b604051808381526020018281526020019250505060405180910390f35b610d5c600480360360c0811015610d1457600080fd5b810190808035906020019092919080359060200190929190803590602001909291908035906020019092919080359060200190929190803590602001909291905050506162ea565b6040518082815260200191505060405180910390f35b610dd0600480360360c0811015610d8857600080fd5b810190808035906020019092919080359060200190929190803590602001909291908035906020019092919080359060200190929190803590602001909291905050506163b6565b6040518082815260200191505060405180910390f35b610dee61645b565b6040518082815260200191505060405180910390f35b610e62600480360360c0811015610e1a57600080fd5b81019080803590602001909291908035906020019092919080359060200190929190803590602001909291908035906020019092919080359060200190929190505050616475565b6040518082815260200191505060405180910390f35b610eba60048036036020811015610e8e57600080fd5b81019080803573ffffffffffffffffffffffffffffffffffffffff16906020019092919050505061654c565b005b610ec4616866565b604051808215151515815260200191505060405180910390f35b610f2060048036036020811015610ef457600080fd5b81019080803573ffffffffffffffffffffffffffffffffffffffff16906020019092919050505061687d565b005b610f2a616adb565b6040518082815260200191505060405180910390f35b610f48616b68565b6040518082815260200191505060405180910390f35b610fa060048036036020811015610f7457600080fd5b81019080803573ffffffffffffffffffffffffffffffffffffffff169060200190929190505050616b77565b6040518082815260200191505060405180910390f35b610fbe616d08565b6040518080602001828103825283818151815260200191508051906020019080838360005b83811015610ffe578082015181840152602081019050610fe3565b50505050905090810190601f16801561102b5780820380516001836020036101000a031916815260200191505b509250505060405180910390f35b611041616daa565b6040518082815260200191505060405180910390f35b61105f616dc3565b6040518082815260200191505060405180910390f35b6110c9600480360360a081101561108b57600080fd5b810190808035906020019092919080359060200190929190803590602001909291908035906020019092919080359060200190929190505050616deb565b6040518082815260200191505060405180910390f35b61112b600480360360408110156110f557600080fd5b81019080803573ffffffffffffffffffffffffffffffffffffffff16906020019092919080359060200190929190505050616e59565b604051808215151515815260200191505060405180910390f35b6111c66004803603604081101561115b57600080fd5b81019080803590602001909291908035906020019064010000000081111561118257600080fd5b82018360208201111561119457600080fd5b803590602001918460208302840111640100000000831117156111b657600080fd5b9091929391929390505050616e70565b005b6111d06173f5565b6040518082815260200191505060405180910390f35b6111ee6173fa565b6040518082815260200191505060405180910390f35b61120c6173ff565b6040518082815260200191505060405180910390f35b611280600480360360c081101561123857600080fd5b81019080803590602001909291908035906020019092919080359060200190929190803590602001909291908035906020019092919080359060200190929190505050617404565b6040518082815260200191505060405180910390f35b61129e61748e565b6040518082815260200191505060405180910390f35b6112bc6174a4565b6040518082815260200191505060405180910390f35b6112da6174b6565b6040518080602001828103825283818151815260200191508051906020019060200280838360005b8381101561131d578082015181840152602081019050611302565b505050509050019250505060405180910390f35b611339617649565b6040518082815260200191505060405180910390f35b611357617655565b6040518082815260200191505060405180910390f35b61137561765a565b6040518080602001828103825283818151815260200191508051906020019060200280838360005b838110156113b857808201518184015260208101905061139d565b505050509050019250505060405180910390f35b6113d461776b565b6040518082815260200191505060405180910390f35b61142c6004803603602081101561140057600080fd5b81019080803573ffffffffffffffffffffffffffffffffffffffff169060200190929190505050617778565b005b611436617e0f565b6040518082815260200191505060405180910390f35b6114986004803603604081101561146257600080fd5b81019080803573ffffffffffffffffffffffffffffffffffffffff16906020019092919080359060200190929190505050617e9c565b604051808215151515815260200191505060405180910390f35b611514600480360360408110156114c857600080fd5b81019080803573ffffffffffffffffffffffffffffffffffffffff169060200190929190803573ffffffffffffffffffffffffffffffffffffffff16906020019092919050505061808f565b6040518082815260200191505060405180910390f35b611532618116565b6040518082815260200191505060405180910390f35b61159e6004803603606081101561155e57600080fd5b81019080803573ffffffffffffffffffffffffffffffffffffffff1690602001909291908035906020019092919080359060200190929190505050618125565b005b6115a8618568565b6040518082815260200191505060405180910390f35b611600600480360360208110156115d457600080fd5b81019080803573ffffffffffffffffffffffffffffffffffffffff16906020019092919050505061857e565b6040518082815260200191505060405180910390f35b6116586004803603602081101561162c57600080fd5b81019080803573ffffffffffffffffffffffffffffffffffffffff169060200190929190505050618720565b6040518082815260200191505060405180910390f35b6116cc600480360360c081101561168457600080fd5b810190808035906020019092919080359060200190929190803590602001909291908035906020019092919080359060200190929190803590602001909291905050506188b1565b6040518082815260200191505060405180910390f35b6116ea618938565b604051808215151515815260200191505060405180910390f35b60003373ffffffffffffffffffffffffffffffffffffffff166000357fffffffff00000000000000000000000000000000000000000000000000000000167bffffffffffffffffffffffffffffffffffffffffffffffffffffffff191660003660405180806020018281038252848482818152602001925080828437600081840152601f19601f820116905080830192505050935050505060405180910390a2600560019054906101000a900460ff1615611827576040517f08c379a000000000000000000000000000000000000000000000000000000000815260040180806020018281038252600b8152602001807f4552525f5245454e54525900000000000000000000000000000000000000000081525060200191505060405180910390fd5b6001600560016101000a81548160ff021916908315150217905550600860009054906101000a900460ff166118c4576040517f08c379a00000000000000000000000000000000000000000000000000000000081526004018080602001828103825260118152602001807f4552525f4e4f545f46494e414c495a454400000000000000000000000000000081525060200191505060405180910390fd5b600a60008573ffffffffffffffffffffffffffffffffffffffff1673ffffffffffffffffffffffffffffffffffffffff16815260200190815260200160002060000160009054906101000a900460ff16611986576040517f08c379a000000000000000000000000000000000000000000000000000000000815260040180806020018281038252600d8152602001807f4552525f4e4f545f424f554e440000000000000000000000000000000000000081525060200191505060405180910390fd5b6119e7600a60008673ffffffffffffffffffffffffffffffffffffffff1673ffffffffffffffffffffffffffffffffffffffff1681526020019081526020016000206003015460016003670de0b6b3a7640000816119e057fe5b040161894f565b831115611a5c576040517f08c379a00000000000000000000000000000000000000000000000000000000081526004018080602001828103825260118152602001807f4552525f4d41585f4f55545f524154494f00000000000000000000000000000081525060200191505060405180910390fd5b6000600a60008673ffffffffffffffffffffffffffffffffffffffff1673ffffffffffffffffffffffffffffffffffffffff1681526020019081526020016000209050611abb81600301548260020154600254600b54886007546162ea565b91506000821415611b34576040517f08c379a000000000000000000000000000000000000000000000000000000000815260040180806020018281038252600f8152602001807f4552525f4d4154485f415050524f58000000000000000000000000000000000081525060200191505060405180910390fd5b82821115611baa576040517f08c379a000000000000000000000000000000000000000000000000000000000815260040180806020018281038252600c8152602001807f4552525f4c494d49545f494e000000000000000000000000000000000000000081525060200191505060405180910390fd5b611bb8816003015485618a91565b81600301819055506000611bcd83600061894f565b90508573ffffffffffffffffffffffffffffffffffffffff163373ffffffffffffffffffffffffffffffffffffffff167fe74c91552b64c2e2e7bd255639e004e693bd3e1d01cc33e65610b86afcc1ffed876040518082815260200191505060405180910390a3611c3e3384618b23565b611c50611c4b8483618a91565b618b31565b611c7c600560029054906101000a900473ffffffffffffffffffffffffffffffffffffffff1682618b3d565b611c87863387618b4b565b82925050506000600560016101000a81548160ff0219169083151502179055509392505050565b606060038054600181600116156101000203166002900480601f016020809104026020016040519081016040528092919081815260200182805460018160011615610100020316600290048015611d465780601f10611d1b57610100808354040283529160200191611d46565b820191906000526020600020905b815481529060010190602001808311611d2957829003601f168201915b5050505050905090565b600081600160003373ffffffffffffffffffffffffffffffffffffffff1673ffffffffffffffffffffffffffffffffffffffff16815260200190815260200160002060008573ffffffffffffffffffffffffffffffffffffffff1673ffffffffffffffffffffffffffffffffffffffff168152602001908152602001600020819055508273ffffffffffffffffffffffffffffffffffffffff163373ffffffffffffffffffffffffffffffffffffffff167f8c5be1e5ebec7d5bd14f71427d1e84f3dd0314c0f7b2291e5b200ac8c7c3b925846040518082815260200191505060405180910390a36001905092915050565b6032670de0b6b3a76400000281565b6000600560019054906101000a900460ff1615611ed6576040517f08c379a000000000000000000000000000000000000000000000000000000000815260040180806020018281038252600b8152602001807f4552525f5245454e54525900000000000000000000000000000000000000000081525060200191505060405180910390fd5b600a60008473ffffffffffffffffffffffffffffffffffffffff1673ffffffffffffffffffffffffffffffffffffffff16815260200190815260200160002060000160009054906101000a900460ff16611f98576040517f08c379a000000000000000000000000000000000000000000000000000000000815260040180806020018281038252600d8152602001807f4552525f4e4f545f424f554e440000000000000000000000000000000000000081525060200191505060405180910390fd5b600a60008373ffffffffffffffffffffffffffffffffffffffff1673ffffffffffffffffffffffffffffffffffffffff16815260200190815260200160002060000160009054906101000a900460ff1661205a576040517f08c379a000000000000000000000000000000000000000000000000000000000815260040180806020018281038252600d8152602001807f4552525f4e4f545f424f554e440000000000000000000000000000000000000081525060200191505060405180910390fd5b6000600a60008573ffffffffffffffffffffffffffffffffffffffff1673ffffffffffffffffffffffffffffffffffffffff16815260200190815260200160002090506000600a60008573ffffffffffffffffffffffffffffffffffffffff1673ffffffffffffffffffffffffffffffffffffffff16815260200190815260200160002090506120fe82600301548360020154836003015484600201546000616deb565b9250505092915050565b6000600560019054906101000a900460ff161561218d576040517f08c379a000000000000000000000000000000000000000000000000000000000815260040180806020018281038252600b8152602001807f4552525f5245454e54525900000000000000000000000000000000000000000081525060200191505060405180910390fd5b600a60008473ffffffffffffffffffffffffffffffffffffffff1673ffffffffffffffffffffffffffffffffffffffff16815260200190815260200160002060000160009054906101000a900460ff1661224f576040517f08c379a000000000000000000000000000000000000000000000000000000000815260040180806020018281038252600d8152602001807f4552525f4e4f545f424f554e440000000000000000000000000000000000000081525060200191505060405180910390fd5b600a60008373ffffffffffffffffffffffffffffffffffffffff1673ffffffffffffffffffffffffffffffffffffffff16815260200190815260200160002060000160009054906101000a900460ff16612311576040517f08c379a000000000000000000000000000000000000000000000000000000000815260040180806020018281038252600d8152602001807f4552525f4e4f545f424f554e440000000000000000000000000000000000000081525060200191505060405180910390fd5b6000600a60008573ffffffffffffffffffffffffffffffffffffffff1673ffffffffffffffffffffffffffffffffffffffff16815260200190815260200160002090506000600a60008573ffffffffffffffffffffffffffffffffffffffff1673ffffffffffffffffffffffffffffffffffffffff16815260200190815260200160002090506123b68260030154836002015483600301548460020154600754616deb565b9250505092915050565b6000600254905090565b6402540be400670de0b6b3a7640000816123e057fe5b0481565b670de0b6b3a764000081565b60008373ffffffffffffffffffffffffffffffffffffffff163373ffffffffffffffffffffffffffffffffffffffff1614806124a85750600160008573ffffffffffffffffffffffffffffffffffffffff1673ffffffffffffffffffffffffffffffffffffffff16815260200190815260200160002060003373ffffffffffffffffffffffffffffffffffffffff1673ffffffffffffffffffffffffffffffffffffffff168152602001908152602001600020548211155b61251a576040517f08c379a00000000000000000000000000000000000000000000000000000000081526004018080602001828103825260158152602001807f4552525f42544f4b454e5f4241445f43414c4c4552000000000000000000000081525060200191505060405180910390fd5b612525848484618c8a565b8373ffffffffffffffffffffffffffffffffffffffff163373ffffffffffffffffffffffffffffffffffffffff16141580156125fd57507fffffffffffffffffffffffffffffffffffffffffffffffffffffffffffffffff600160008673ffffffffffffffffffffffffffffffffffffffff1673ffffffffffffffffffffffffffffffffffffffff16815260200190815260200160002060003373ffffffffffffffffffffffffffffffffffffffff1673ffffffffffffffffffffffffffffffffffffffff1681526020019081526020016000205414155b156127ea57612688600160008673ffffffffffffffffffffffffffffffffffffffff1673ffffffffffffffffffffffffffffffffffffffff16815260200190815260200160002060003373ffffffffffffffffffffffffffffffffffffffff1673ffffffffffffffffffffffffffffffffffffffff1681526020019081526020016000205483618a91565b600160008673ffffffffffffffffffffffffffffffffffffffff1673ffffffffffffffffffffffffffffffffffffffff16815260200190815260200160002060003373ffffffffffffffffffffffffffffffffffffffff1673ffffffffffffffffffffffffffffffffffffffff168152602001908152602001600020819055508273ffffffffffffffffffffffffffffffffffffffff163373ffffffffffffffffffffffffffffffffffffffff167f8c5be1e5ebec7d5bd14f71427d1e84f3dd0314c0f7b2291e5b200ac8c7c3b925600160008873ffffffffffffffffffffffffffffffffffffffff1673ffffffffffffffffffffffffffffffffffffffff16815260200190815260200160002060003373ffffffffffffffffffffffffffffffffffffffff1673ffffffffffffffffffffffffffffffffffffffff168152602001908152602001600020546040518082815260200191505060405180910390a35b600190509392505050565b6000600a60008373ffffffffffffffffffffffffffffffffffffffff1673ffffffffffffffffffffffffffffffffffffffff16815260200190815260200160002060000160009054906101000a900460ff169050919050565b6000600560019054906101000a900460ff16156128d3576040517f08c379a000000000000000000000000000000000000000000000000000000000815260040180806020018281038252600b8152602001807f4552525f5245454e54525900000000000000000000000000000000000000000081525060200191505060405180910390fd5b600660009054906101000a900473ffffffffffffffffffffffffffffffffffffffff16905090565b6000600560009054906101000a900460ff16905090565b3373ffffffffffffffffffffffffffffffffffffffff166000357fffffffff00000000000000000000000000000000000000000000000000000000167bffffffffffffffffffffffffffffffffffffffffffffffffffffffff191660003660405180806020018281038252848482818152602001925080828437600081840152601f19601f820116905080830192505050935050505060405180910390a2600560019054906101000a900460ff1615612a33576040517f08c379a000000000000000000000000000000000000000000000000000000000815260040180806020018281038252600b8152602001807f4552525f5245454e54525900000000000000000000000000000000000000000081525060200191505060405180910390fd5b6001600560016101000a81548160ff021916908315150217905550600860009054906101000a900460ff1615612ad1576040517f08c379a00000000000000000000000000000000000000000000000000000000081526004018080602001828103825260108152602001807f4552525f49535f46494e414c495a45440000000000000000000000000000000081525060200191505060405180910390fd5b600660009054906101000a900473ffffffffffffffffffffffffffffffffffffffff1673ffffffffffffffffffffffffffffffffffffffff163373ffffffffffffffffffffffffffffffffffffffff1614612b94576040517f08c379a00000000000000000000000000000000000000000000000000000000081526004018080602001828103825260128152602001807f4552525f4e4f545f434f4e54524f4c4c4552000000000000000000000000000081525060200191505060405180910390fd5b620f4240670de0b6b3a764000081612ba857fe5b04811015612c1e576040517f08c379a000000000000000000000000000000000000000000000000000000000815260040180806020018281038252600b8152602001807f4552525f4d494e5f46454500000000000000000000000000000000000000000081525060200191505060405180910390fd5b600a670de0b6b3a764000081612c3057fe5b04811115612ca6576040517f08c379a000000000000000000000000000000000000000000000000000000000815260040180806020018281038252600b8152602001807f4552525f4d41585f46454500000000000000000000000000000000000000000081525060200191505060405180910390fd5b806007819055506000600560016101000a81548160ff02191690831515021790555050565b3373ffffffffffffffffffffffffffffffffffffffff166000357fffffffff00000000000000000000000000000000000000000000000000000000167bffffffffffffffffffffffffffffffffffffffffffffffffffffffff191660003660405180806020018281038252848482818152602001925080828437600081840152601f19601f820116905080830192505050935050505060405180910390a2600560019054906101000a900460ff1615612dec576040517f08c379a000000000000000000000000000000000000000000000000000000000815260040180806020018281038252600b8152602001807f4552525f5245454e54525900000000000000000000000000000000000000000081525060200191505060405180910390fd5b6001600560016101000a81548160ff021916908315150217905550600660009054906101000a900473ffffffffffffffffffffffffffffffffffffffff1673ffffffffffffffffffffffffffffffffffffffff163373ffffffffffffffffffffffffffffffffffffffff1614612eca576040517f08c379a00000000000000000000000000000000000000000000000000000000081526004018080602001828103825260128152602001807f4552525f4e4f545f434f4e54524f4c4c4552000000000000000000000000000081525060200191505060405180910390fd5b600a60008473ffffffffffffffffffffffffffffffffffffffff1673ffffffffffffffffffffffffffffffffffffffff16815260200190815260200160002060000160009054906101000a900460ff16612f8c576040517f08c379a000000000000000000000000000000000000000000000000000000000815260040180806020018281038252600d8152602001807f4552525f4e4f545f424f554e440000000000000000000000000000000000000081525060200191505060405180910390fd5b600860009054906101000a900460ff161561300f576040517f08c379a00000000000000000000000000000000000000000000000000000000081526004018080602001828103825260108152602001807f4552525f49535f46494e414c495a45440000000000000000000000000000000081525060200191505060405180910390fd5b670de0b6b3a764000081101561308d576040517f08c379a000000000000000000000000000000000000000000000000000000000815260040180806020018281038252600e8152602001807f4552525f4d494e5f57454947485400000000000000000000000000000000000081525060200191505060405180910390fd5b6032670de0b6b3a76400000281111561310e576040517f08c379a000000000000000000000000000000000000000000000000000000000815260040180806020018281038252600e8152602001807f4552525f4d41585f57454947485400000000000000000000000000000000000081525060200191505060405180910390fd5b64e8d4a51000670de0b6b3a76400008161312457fe5b0482101561319a576040517f08c379a000000000000000000000000000000000000000000000000000000000815260040180806020018281038252600f8152602001807f4552525f4d494e5f42414c414e4345000000000000000000000000000000000081525060200191505060405180910390fd5b6000600a60008573ffffffffffffffffffffffffffffffffffffffff1673ffffffffffffffffffffffffffffffffffffffff1681526020019081526020016000206002015490508082111561328c576131fe600b546131f98484618a91565b618ebc565b600b819055506032670de0b6b3a764000002600b541115613287576040517f08c379a00000000000000000000000000000000000000000000000000000000081526004018080602001828103825260148152602001807f4552525f4d41585f544f54414c5f57454947485400000000000000000000000081525060200191505060405180910390fd5b6132b1565b808210156132b0576132a9600b546132a48385618a91565b618a91565b600b819055505b5b81600a60008673ffffffffffffffffffffffffffffffffffffffff1673ffffffffffffffffffffffffffffffffffffffff168152602001908152602001600020600201819055506000600a60008673ffffffffffffffffffffffffffffffffffffffff1673ffffffffffffffffffffffffffffffffffffffff16815260200190815260200160002060030154905083600a60008773ffffffffffffffffffffffffffffffffffffffff1673ffffffffffffffffffffffffffffffffffffffff16815260200190815260200160002060030181905550808411156133a7576133a2853361339d8785618a91565b618f44565b613411565b808410156134105760006133bb8286618a91565b905060006133ca82600061894f565b90506133e087336133db8585618a91565b618b4b565b61340d87600560029054906101000a900473ffffffffffffffffffffffffffffffffffffffff1683618b4b565b50505b5b50506000600560016101000a81548160ff021916908315150217905550505050565b60003373ffffffffffffffffffffffffffffffffffffffff166000357fffffffff00000000000000000000000000000000000000000000000000000000167bffffffffffffffffffffffffffffffffffffffffffffffffffffffff191660003660405180806020018281038252848482818152602001925080828437600081840152601f19601f820116905080830192505050935050505060405180910390a2600560019054906101000a900460ff1615613556576040517f08c379a000000000000000000000000000000000000000000000000000000000815260040180806020018281038252600b8152602001807f4552525f5245454e54525900000000000000000000000000000000000000000081525060200191505060405180910390fd5b6001600560016101000a81548160ff021916908315150217905550600860009054906101000a900460ff166135f3576040517f08c379a00000000000000000000000000000000000000000000000000000000081526004018080602001828103825260118152602001807f4552525f4e4f545f46494e414c495a454400000000000000000000000000000081525060200191505060405180910390fd5b600a60008573ffffffffffffffffffffffffffffffffffffffff1673ffffffffffffffffffffffffffffffffffffffff16815260200190815260200160002060000160009054906101000a900460ff166136b5576040517f08c379a000000000000000000000000000000000000000000000000000000000815260040180806020018281038252600d8152602001807f4552525f4e4f545f424f554e440000000000000000000000000000000000000081525060200191505060405180910390fd5b6000600a60008673ffffffffffffffffffffffffffffffffffffffff1673ffffffffffffffffffffffffffffffffffffffff168152602001908152602001600020905061371481600301548260020154600254600b5488600754616475565b91508282101561378c576040517f08c379a000000000000000000000000000000000000000000000000000000000815260040180806020018281038252600d8152602001807f4552525f4c494d49545f4f55540000000000000000000000000000000000000081525060200191505060405180910390fd5b6137ed600a60008773ffffffffffffffffffffffffffffffffffffffff1673ffffffffffffffffffffffffffffffffffffffff1681526020019081526020016000206003015460016003670de0b6b3a7640000816137e657fe5b040161894f565b821115613862576040517f08c379a00000000000000000000000000000000000000000000000000000000081526004018080602001828103825260118152602001807f4552525f4d41585f4f55545f524154494f00000000000000000000000000000081525060200191505060405180910390fd5b613870816003015483618a91565b8160030181905550600061388585600061894f565b90508573ffffffffffffffffffffffffffffffffffffffff163373ffffffffffffffffffffffffffffffffffffffff167fe74c91552b64c2e2e7bd255639e004e693bd3e1d01cc33e65610b86afcc1ffed856040518082815260200191505060405180910390a36138f63386618b23565b6139086139038683618a91565b618b31565b613934600560029054906101000a900473ffffffffffffffffffffffffffffffffffffffff1682618b3d565b61393f863385618b4b565b82925050506000600560016101000a81548160ff0219169083151502179055509392505050565b3373ffffffffffffffffffffffffffffffffffffffff166000357fffffffff00000000000000000000000000000000000000000000000000000000167bffffffffffffffffffffffffffffffffffffffffffffffffffffffff191660003660405180806020018281038252848482818152602001925080828437600081840152601f19601f820116905080830192505050935050505060405180910390a2600560019054906101000a900460ff1615613a87576040517f08c379a000000000000000000000000000000000000000000000000000000000815260040180806020018281038252600b8152602001807f4552525f5245454e54525900000000000000000000000000000000000000000081525060200191505060405180910390fd5b6001600560016101000a81548160ff021916908315150217905550600860009054906101000a900460ff1615613b25576040517f08c379a00000000000000000000000000000000000000000000000000000000081526004018080602001828103825260108152602001807f4552525f49535f46494e414c495a45440000000000000000000000000000000081525060200191505060405180910390fd5b600660009054906101000a900473ffffffffffffffffffffffffffffffffffffffff1673ffffffffffffffffffffffffffffffffffffffff163373ffffffffffffffffffffffffffffffffffffffff1614613be8576040517f08c379a00000000000000000000000000000000000000000000000000000000081526004018080602001828103825260128152602001807f4552525f4e4f545f434f4e54524f4c4c4552000000000000000000000000000081525060200191505060405180910390fd5b80600660146101000a81548160ff0219169083151502179055506000600560016101000a81548160ff02191690831515021790555050565b3373ffffffffffffffffffffffffffffffffffffffff166000357fffffffff00000000000000000000000000000000000000000000000000000000167bffffffffffffffffffffffffffffffffffffffffffffffffffffffff191660003660405180806020018281038252848482818152602001925080828437600081840152601f19601f820116905080830192505050935050505060405180910390a2600560019054906101000a900460ff1615613d41576040517f08c379a000000000000000000000000000000000000000000000000000000000815260040180806020018281038252600b8152602001807f4552525f5245454e54525900000000000000000000000000000000000000000081525060200191505060405180910390fd5b6001600560016101000a81548160ff021916908315150217905550600660009054906101000a900473ffffffffffffffffffffffffffffffffffffffff1673ffffffffffffffffffffffffffffffffffffffff163373ffffffffffffffffffffffffffffffffffffffff1614613e1f576040517f08c379a00000000000000000000000000000000000000000000000000000000081526004018080602001828103825260128152602001807f4552525f4e4f545f434f4e54524f4c4c4552000000000000000000000000000081525060200191505060405180910390fd5b600860009054906101000a900460ff1615613ea2576040517f08c379a00000000000000000000000000000000000000000000000000000000081526004018080602001828103825260108152602001807f4552525f49535f46494e414c495a45440000000000000000000000000000000081525060200191505060405180910390fd5b60026009805490501015613f1e576040517f08c379a000000000000000000000000000000000000000000000000000000000815260040180806020018281038252600e8152602001807f4552525f4d494e5f544f4b454e5300000000000000000000000000000000000081525060200191505060405180910390fd5b6001600860006101000a81548160ff0219169083151502179055506001600660146101000a81548160ff021916908315150217905550613f686064670de0b6b3a7640000026190b7565b613f7d336064670de0b6b3a764000002618b3d565b6000600560016101000a81548160ff021916908315150217905550565b3373ffffffffffffffffffffffffffffffffffffffff166000357fffffffff00000000000000000000000000000000000000000000000000000000167bffffffffffffffffffffffffffffffffffffffffffffffffffffffff191660003660405180806020018281038252848482818152602001925080828437600081840152601f19601f820116905080830192505050935050505060405180910390a2600560019054906101000a900460ff16156140bb576040517f08c379a000000000000000000000000000000000000000000000000000000000815260040180806020018281038252600b8152602001807f4552525f5245454e54525900000000000000000000000000000000000000000081525060200191505060405180910390fd5b6001600560016101000a81548160ff021916908315150217905550600860009054906101000a900460ff16614158576040517f08c379a00000000000000000000000000000000000000000000000000000000081526004018080602001828103825260118152602001807f4552525f4e4f545f46494e414c495a454400000000000000000000000000000081525060200191505060405180910390fd5b60006141626123c0565b9050600061417085836190c3565b905060008114156141e9576040517f08c379a000000000000000000000000000000000000000000000000000000000815260040180806020018281038252600f8152602001807f4552525f4d4154485f415050524f58000000000000000000000000000000000081525060200191505060405180910390fd5b60008090505b60098054905081101561449e5760006009828154811061420b57fe5b9060005260206000200160009054906101000a900473ffffffffffffffffffffffffffffffffffffffff1690506000600a60008373ffffffffffffffffffffffffffffffffffffffff1673ffffffffffffffffffffffffffffffffffffffff168152602001908152602001600020600301549050600061428b858361894f565b90506000811415614304576040517f08c379a000000000000000000000000000000000000000000000000000000000815260040180806020018281038252600f8152602001807f4552525f4d4154485f415050524f58000000000000000000000000000000000081525060200191505060405180910390fd5b87878581811061431057fe5b9050602002013581111561438c576040517f08c379a000000000000000000000000000000000000000000000000000000000815260040180806020018281038252600c8152602001807f4552525f4c494d49545f494e000000000000000000000000000000000000000081525060200191505060405180910390fd5b6143d8600a60008573ffffffffffffffffffffffffffffffffffffffff1673ffffffffffffffffffffffffffffffffffffffff1681526020019081526020016000206003015482618ebc565b600a60008573ffffffffffffffffffffffffffffffffffffffff1673ffffffffffffffffffffffffffffffffffffffff168152602001908152602001600020600301819055508273ffffffffffffffffffffffffffffffffffffffff163373ffffffffffffffffffffffffffffffffffffffff167f63982df10efd8dfaaaa0fcc7f50b2d93b7cba26ccc48adee2873220d485dc39a836040518082815260200191505060405180910390a361448e833383618f44565b50505080806001019150506141ef565b506144a8856190b7565b6144b23386618b3d565b50506000600560016101000a81548160ff021916908315150217905550505050565b6000806144e187866190c3565b905060006144ef8786618ebc565b905060006144fd82896190c3565b90506000614513670de0b6b3a7640000856190c3565b90506000614521838361927c565b9050600061452f828e61894f565b9050600061453d828f618a91565b9050600061455c614556670de0b6b3a76400008a618a91565b8b61894f565b905061457982614574670de0b6b3a764000084618a91565b6190c3565b985088985050505050505050509695505050505050565b60003373ffffffffffffffffffffffffffffffffffffffff166000357fffffffff00000000000000000000000000000000000000000000000000000000167bffffffffffffffffffffffffffffffffffffffffffffffffffffffff191660003660405180806020018281038252848482818152602001925080828437600081840152601f19601f820116905080830192505050935050505060405180910390a2600560019054906101000a900460ff16156146b3576040517f08c379a000000000000000000000000000000000000000000000000000000000815260040180806020018281038252600b8152602001807f4552525f5245454e54525900000000000000000000000000000000000000000081525060200191505060405180910390fd5b6001600560016101000a81548160ff021916908315150217905550600860009054906101000a900460ff16614750576040517f08c379a00000000000000000000000000000000000000000000000000000000081526004018080602001828103825260118152602001807f4552525f4e4f545f46494e414c495a454400000000000000000000000000000081525060200191505060405180910390fd5b600a60008573ffffffffffffffffffffffffffffffffffffffff1673ffffffffffffffffffffffffffffffffffffffff16815260200190815260200160002060000160009054906101000a900460ff16614812576040517f08c379a000000000000000000000000000000000000000000000000000000000815260040180806020018281038252600d8152602001807f4552525f4e4f545f424f554e440000000000000000000000000000000000000081525060200191505060405180910390fd5b614870600a60008673ffffffffffffffffffffffffffffffffffffffff1673ffffffffffffffffffffffffffffffffffffffff168152602001908152602001600020600301546002670de0b6b3a76400008161486a57fe5b0461894f565b8311156148e5576040517f08c379a00000000000000000000000000000000000000000000000000000000081526004018080602001828103825260108152602001807f4552525f4d41585f494e5f524154494f0000000000000000000000000000000081525060200191505060405180910390fd5b6000600a60008673ffffffffffffffffffffffffffffffffffffffff1673ffffffffffffffffffffffffffffffffffffffff168152602001908152602001600020905061494481600301548260020154600254600b54886007546163b6565b9150828210156149bc576040517f08c379a000000000000000000000000000000000000000000000000000000000815260040180806020018281038252600d8152602001807f4552525f4c494d49545f4f55540000000000000000000000000000000000000081525060200191505060405180910390fd5b6149ca816003015485618ebc565b81600301819055508473ffffffffffffffffffffffffffffffffffffffff163373ffffffffffffffffffffffffffffffffffffffff167f63982df10efd8dfaaaa0fcc7f50b2d93b7cba26ccc48adee2873220d485dc39a866040518082815260200191505060405180910390a3614a40826190b7565b614a4a3383618b3d565b614a55853386618f44565b819150506000600560016101000a81548160ff0219169083151502179055509392505050565b600080600160003373ffffffffffffffffffffffffffffffffffffffff1673ffffffffffffffffffffffffffffffffffffffff16815260200190815260200160002060008573ffffffffffffffffffffffffffffffffffffffff1673ffffffffffffffffffffffffffffffffffffffff16815260200190815260200160002054905080831115614b8c576000600160003373ffffffffffffffffffffffffffffffffffffffff1673ffffffffffffffffffffffffffffffffffffffff16815260200190815260200160002060008673ffffffffffffffffffffffffffffffffffffffff1673ffffffffffffffffffffffffffffffffffffffff16815260200190815260200160002081905550614c17565b614b968184618a91565b600160003373ffffffffffffffffffffffffffffffffffffffff1673ffffffffffffffffffffffffffffffffffffffff16815260200190815260200160002060008673ffffffffffffffffffffffffffffffffffffffff1673ffffffffffffffffffffffffffffffffffffffff168152602001908152602001600020819055505b8373ffffffffffffffffffffffffffffffffffffffff163373ffffffffffffffffffffffffffffffffffffffff167f8c5be1e5ebec7d5bd14f71427d1e84f3dd0314c0f7b2291e5b200ac8c7c3b925600160003373ffffffffffffffffffffffffffffffffffffffff1673ffffffffffffffffffffffffffffffffffffffff16815260200190815260200160002060008873ffffffffffffffffffffffffffffffffffffffff1673ffffffffffffffffffffffffffffffffffffffff168152602001908152602001600020546040518082815260200191505060405180910390a3600191505092915050565b60003373ffffffffffffffffffffffffffffffffffffffff166000357fffffffff00000000000000000000000000000000000000000000000000000000167bffffffffffffffffffffffffffffffffffffffffffffffffffffffff191660003660405180806020018281038252848482818152602001925080828437600081840152601f19601f820116905080830192505050935050505060405180910390a2600560019054906101000a900460ff1615614e26576040517f08c379a000000000000000000000000000000000000000000000000000000000815260040180806020018281038252600b8152602001807f4552525f5245454e54525900000000000000000000000000000000000000000081525060200191505060405180910390fd5b6001600560016101000a81548160ff021916908315150217905550600860009054906101000a900460ff16614ec3576040517f08c379a00000000000000000000000000000000000000000000000000000000081526004018080602001828103825260118152602001807f4552525f4e4f545f46494e414c495a454400000000000000000000000000000081525060200191505060405180910390fd5b600a60008573ffffffffffffffffffffffffffffffffffffffff1673ffffffffffffffffffffffffffffffffffffffff16815260200190815260200160002060000160009054906101000a900460ff16614f85576040517f08c379a000000000000000000000000000000000000000000000000000000000815260040180806020018281038252600d8152602001807f4552525f4e4f545f424f554e440000000000000000000000000000000000000081525060200191505060405180910390fd5b6000600a60008673ffffffffffffffffffffffffffffffffffffffff1673ffffffffffffffffffffffffffffffffffffffff1681526020019081526020016000209050614fe481600301548260020154600254600b54886007546144d4565b9150600082141561505d576040517f08c379a000000000000000000000000000000000000000000000000000000000815260040180806020018281038252600f8152602001807f4552525f4d4154485f415050524f58000000000000000000000000000000000081525060200191505060405180910390fd5b828211156150d3576040517f08c379a000000000000000000000000000000000000000000000000000000000815260040180806020018281038252600c8152602001807f4552525f4c494d49545f494e000000000000000000000000000000000000000081525060200191505060405180910390fd5b615131600a60008773ffffffffffffffffffffffffffffffffffffffff1673ffffffffffffffffffffffffffffffffffffffff168152602001908152602001600020600301546002670de0b6b3a76400008161512b57fe5b0461894f565b8211156151a6576040517f08c379a00000000000000000000000000000000000000000000000000000000081526004018080602001828103825260108152602001807f4552525f4d41585f494e5f524154494f0000000000000000000000000000000081525060200191505060405180910390fd5b6151b4816003015483618ebc565b81600301819055508473ffffffffffffffffffffffffffffffffffffffff163373ffffffffffffffffffffffffffffffffffffffff167f63982df10efd8dfaaaa0fcc7f50b2d93b7cba26ccc48adee2873220d485dc39a846040518082815260200191505060405180910390a361522a846190b7565b6152343385618b3d565b61523f853384618f44565b819150506000600560016101000a81548160ff0219169083151502179055509392505050565b60008060008373ffffffffffffffffffffffffffffffffffffffff1673ffffffffffffffffffffffffffffffffffffffff168152602001908152602001600020549050919050565b620f4240670de0b6b3a7640000816152c157fe5b0481565b6000803373ffffffffffffffffffffffffffffffffffffffff166000357fffffffff00000000000000000000000000000000000000000000000000000000167bffffffffffffffffffffffffffffffffffffffffffffffffffffffff191660003660405180806020018281038252848482818152602001925080828437600081840152601f19601f820116905080830192505050935050505060405180910390a2600560019054906101000a900460ff16156153e9576040517f08c379a000000000000000000000000000000000000000000000000000000000815260040180806020018281038252600b8152602001807f4552525f5245454e54525900000000000000000000000000000000000000000081525060200191505060405180910390fd5b6001600560016101000a81548160ff021916908315150217905550600a60008873ffffffffffffffffffffffffffffffffffffffff1673ffffffffffffffffffffffffffffffffffffffff16815260200190815260200160002060000160009054906101000a900460ff166154c6576040517f08c379a000000000000000000000000000000000000000000000000000000000815260040180806020018281038252600d8152602001807f4552525f4e4f545f424f554e440000000000000000000000000000000000000081525060200191505060405180910390fd5b600a60008673ffffffffffffffffffffffffffffffffffffffff1673ffffffffffffffffffffffffffffffffffffffff16815260200190815260200160002060000160009054906101000a900460ff16615588576040517f08c379a000000000000000000000000000000000000000000000000000000000815260040180806020018281038252600d8152602001807f4552525f4e4f545f424f554e440000000000000000000000000000000000000081525060200191505060405180910390fd5b600660149054906101000a900460ff1661560a576040517f08c379a00000000000000000000000000000000000000000000000000000000081526004018080602001828103825260138152602001807f4552525f535741505f4e4f545f5055424c49430000000000000000000000000081525060200191505060405180910390fd5b6000600a60008973ffffffffffffffffffffffffffffffffffffffff1673ffffffffffffffffffffffffffffffffffffffff16815260200190815260200160002090506000600a60008873ffffffffffffffffffffffffffffffffffffffff1673ffffffffffffffffffffffffffffffffffffffff16815260200190815260200160002090506156b3816003015460016003670de0b6b3a7640000816156ac57fe5b040161894f565b861115615728576040517f08c379a00000000000000000000000000000000000000000000000000000000081526004018080602001828103825260118152602001807f4552525f4d41585f4f55545f524154494f00000000000000000000000000000081525060200191505060405180910390fd5b60006157498360030154846002015484600301548560020154600754616deb565b9050858111156157c1576040517f08c379a00000000000000000000000000000000000000000000000000000000081526004018080602001828103825260138152602001807f4552525f4241445f4c494d49545f50524943450000000000000000000000000081525060200191505060405180910390fd5b6157e183600301548460020154846003015485600201548b6007546188b1565b945088851115615859576040517f08c379a000000000000000000000000000000000000000000000000000000000815260040180806020018281038252600c8152602001807f4552525f4c494d49545f494e000000000000000000000000000000000000000081525060200191505060405180910390fd5b615867836003015486618ebc565b836003018190555061587d826003015488618a91565b82600301819055506158a48360030154846002015484600301548560020154600754616deb565b93508084101561591c576040517f08c379a000000000000000000000000000000000000000000000000000000000815260040180806020018281038252600f8152602001807f4552525f4d4154485f415050524f58000000000000000000000000000000000081525060200191505060405180910390fd5b85841115615992576040517f08c379a000000000000000000000000000000000000000000000000000000000815260040180806020018281038252600f8152602001807f4552525f4c494d49545f5052494345000000000000000000000000000000000081525060200191505060405180910390fd5b61599c85886190c3565b811115615a11576040517f08c379a000000000000000000000000000000000000000000000000000000000815260040180806020018281038252600f8152602001807f4552525f4d4154485f415050524f58000000000000000000000000000000000081525060200191505060405180910390fd5b8773ffffffffffffffffffffffffffffffffffffffff168a73ffffffffffffffffffffffffffffffffffffffff163373ffffffffffffffffffffffffffffffffffffffff167f908fb5ee8f16c6bc9bc3690973819f32a4d4b10188134543c88706e0e1d43378888b604051808381526020018281526020019250505060405180910390a4615aa08a3387618f44565b615aab883389618b4b565b8484945094505050506000600560016101000a81548160ff0219169083151502179055509550959350505050565b6000803373ffffffffffffffffffffffffffffffffffffffff166000357fffffffff00000000000000000000000000000000000000000000000000000000167bffffffffffffffffffffffffffffffffffffffffffffffffffffffff191660003660405180806020018281038252848482818152602001925080828437600081840152601f19601f820116905080830192505050935050505060405180910390a2600560019054906101000a900460ff1615615bfd576040517f08c379a000000000000000000000000000000000000000000000000000000000815260040180806020018281038252600b8152602001807f4552525f5245454e54525900000000000000000000000000000000000000000081525060200191505060405180910390fd5b6001600560016101000a81548160ff021916908315150217905550600a60008873ffffffffffffffffffffffffffffffffffffffff1673ffffffffffffffffffffffffffffffffffffffff16815260200190815260200160002060000160009054906101000a900460ff16615cda576040517f08c379a000000000000000000000000000000000000000000000000000000000815260040180806020018281038252600d8152602001807f4552525f4e4f545f424f554e440000000000000000000000000000000000000081525060200191505060405180910390fd5b600a60008673ffffffffffffffffffffffffffffffffffffffff1673ffffffffffffffffffffffffffffffffffffffff16815260200190815260200160002060000160009054906101000a900460ff16615d9c576040517f08c379a000000000000000000000000000000000000000000000000000000000815260040180806020018281038252600d8152602001807f4552525f4e4f545f424f554e440000000000000000000000000000000000000081525060200191505060405180910390fd5b600660149054906101000a900460ff16615e1e576040517f08c379a00000000000000000000000000000000000000000000000000000000081526004018080602001828103825260138152602001807f4552525f535741505f4e4f545f5055424c49430000000000000000000000000081525060200191505060405180910390fd5b6000600a60008973ffffffffffffffffffffffffffffffffffffffff1673ffffffffffffffffffffffffffffffffffffffff16815260200190815260200160002090506000600a60008873ffffffffffffffffffffffffffffffffffffffff1673ffffffffffffffffffffffffffffffffffffffff1681526020019081526020016000209050615ec482600301546002670de0b6b3a764000081615ebe57fe5b0461894f565b881115615f39576040517f08c379a00000000000000000000000000000000000000000000000000000000081526004018080602001828103825260108152602001807f4552525f4d41585f494e5f524154494f0000000000000000000000000000000081525060200191505060405180910390fd5b6000615f5a8360030154846002015484600301548560020154600754616deb565b905085811115615fd2576040517f08c379a00000000000000000000000000000000000000000000000000000000081526004018080602001828103825260138152602001807f4552525f4241445f4c494d49545f50524943450000000000000000000000000081525060200191505060405180910390fd5b615ff283600301548460020154846003015485600201548d600754617404565b94508685101561606a576040517f08c379a000000000000000000000000000000000000000000000000000000000815260040180806020018281038252600d8152602001807f4552525f4c494d49545f4f55540000000000000000000000000000000000000081525060200191505060405180910390fd5b61607883600301548a618ebc565b836003018190555061608e826003015486618a91565b82600301819055506160b58360030154846002015484600301548560020154600754616deb565b93508084101561612d576040517f08c379a000000000000000000000000000000000000000000000000000000000815260040180806020018281038252600f8152602001807f4552525f4d4154485f415050524f58000000000000000000000000000000000081525060200191505060405180910390fd5b858411156161a3576040517f08c379a000000000000000000000000000000000000000000000000000000000815260040180806020018281038252600f8152602001807f4552525f4c494d49545f5052494345000000000000000000000000000000000081525060200191505060405180910390fd5b6161ad89866190c3565b811115616222576040517f08c379a000000000000000000000000000000000000000000000000000000000815260040180806020018281038252600f8152602001807f4552525f4d4154485f415050524f58000000000000000000000000000000000081525060200191505060405180910390fd5b8773ffffffffffffffffffffffffffffffffffffffff168a73ffffffffffffffffffffffffffffffffffffffff163373ffffffffffffffffffffffffffffffffffffffff167f908fb5ee8f16c6bc9bc3690973819f32a4d4b10188134543c88706e0e1d433788c89604051808381526020018281526020019250505060405180910390a46162b18a338b618f44565b6162bc883387618b4b565b8484945094505050506000600560016101000a81548160ff0219169083151502179055509550959350505050565b6000806162f787866190c3565b9050600061630d670de0b6b3a764000083618a91565b9050600061631b828661894f565b9050600061633a87616335670de0b6b3a764000085618a91565b6190c3565b905060006163488c83618a91565b90506000616356828e6190c3565b90506000616364828861927c565b90506000616372828e61894f565b905060006163808e83618a91565b905061639e81616399670de0b6b3a76400006000618a91565b6190c3565b99508999505050505050505050509695505050505050565b6000806163c387866190c3565b905060006163e26163dc670de0b6b3a764000084618a91565b8561894f565b90506000616401866163fc670de0b6b3a764000085618a91565b61894f565b9050600061640f8b83618ebc565b9050600061641d828d6190c3565b9050600061642b828761927c565b90506000616439828d61894f565b9050616445818d618a91565b9750879750505050505050509695505050505050565b64e8d4a51000670de0b6b3a76400008161647157fe5b0481565b60008061648287866190c3565b905060006164a28561649d670de0b6b3a76400006000618a91565b61894f565b905060006164b08883618a91565b905060006164be828a6190c3565b905060006164dd826164d8670de0b6b3a7640000886190c3565b61927c565b905060006164eb828e61894f565b905060006164f98e83618a91565b90506000616518616512670de0b6b3a76400008a618a91565b8b61894f565b905061653582616530670de0b6b3a764000084618a91565b61894f565b985088985050505050505050509695505050505050565b3373ffffffffffffffffffffffffffffffffffffffff166000357fffffffff00000000000000000000000000000000000000000000000000000000167bffffffffffffffffffffffffffffffffffffffffffffffffffffffff191660003660405180806020018281038252848482818152602001925080828437600081840152601f19601f820116905080830192505050935050505060405180910390a2600560019054906101000a900460ff161561666d576040517f08c379a000000000000000000000000000000000000000000000000000000000815260040180806020018281038252600b8152602001807f4552525f5245454e54525900000000000000000000000000000000000000000081525060200191505060405180910390fd5b6001600560016101000a81548160ff021916908315150217905550600a60008273ffffffffffffffffffffffffffffffffffffffff1673ffffffffffffffffffffffffffffffffffffffff16815260200190815260200160002060000160009054906101000a900460ff1661674a576040517f08c379a000000000000000000000000000000000000000000000000000000000815260040180806020018281038252600d8152602001807f4552525f4e4f545f424f554e440000000000000000000000000000000000000081525060200191505060405180910390fd5b8073ffffffffffffffffffffffffffffffffffffffff166370a08231306040518263ffffffff1660e01b8152600401808273ffffffffffffffffffffffffffffffffffffffff1673ffffffffffffffffffffffffffffffffffffffff16815260200191505060206040518083038186803b1580156167c757600080fd5b505afa1580156167db573d6000803e3d6000fd5b505050506040513d60208110156167f157600080fd5b8101908080519060200190929190505050600a60008373ffffffffffffffffffffffffffffffffffffffff1673ffffffffffffffffffffffffffffffffffffffff168152602001908152602001600020600301819055506000600560016101000a81548160ff02191690831515021790555050565b6000600860009054906101000a900460ff16905090565b3373ffffffffffffffffffffffffffffffffffffffff166000357fffffffff00000000000000000000000000000000000000000000000000000000167bffffffffffffffffffffffffffffffffffffffffffffffffffffffff191660003660405180806020018281038252848482818152602001925080828437600081840152601f19601f820116905080830192505050935050505060405180910390a2600560019054906101000a900460ff161561699e576040517f08c379a000000000000000000000000000000000000000000000000000000000815260040180806020018281038252600b8152602001807f4552525f5245454e54525900000000000000000000000000000000000000000081525060200191505060405180910390fd5b6001600560016101000a81548160ff021916908315150217905550600660009054906101000a900473ffffffffffffffffffffffffffffffffffffffff1673ffffffffffffffffffffffffffffffffffffffff163373ffffffffffffffffffffffffffffffffffffffff1614616a7c576040517f08c379a00000000000000000000000000000000000000000000000000000000081526004018080602001828103825260128152602001807f4552525f4e4f545f434f4e54524f4c4c4552000000000000000000000000000081525060200191505060405180910390fd5b80600660006101000a81548173ffffffffffffffffffffffffffffffffffffffff021916908373ffffffffffffffffffffffffffffffffffffffff1602179055506000600560016101000a81548160ff02191690831515021790555050565b6000600560019054906101000a900460ff1615616b60576040517f08c379a000000000000000000000000000000000000000000000000000000000815260040180806020018281038252600b8152602001807f4552525f5245454e54525900000000000000000000000000000000000000000081525060200191505060405180910390fd5b600b54905090565b6064670de0b6b3a76400000281565b6000600560019054906101000a900460ff1615616bfc576040517f08c379a000000000000000000000000000000000000000000000000000000000815260040180806020018281038252600b8152602001807f4552525f5245454e54525900000000000000000000000000000000000000000081525060200191505060405180910390fd5b600a60008373ffffffffffffffffffffffffffffffffffffffff1673ffffffffffffffffffffffffffffffffffffffff16815260200190815260200160002060000160009054906101000a900460ff16616cbe576040517f08c379a000000000000000000000000000000000000000000000000000000000815260040180806020018281038252600d8152602001807f4552525f4e4f545f424f554e440000000000000000000000000000000000000081525060200191505060405180910390fd5b600a60008373ffffffffffffffffffffffffffffffffffffffff1673ffffffffffffffffffffffffffffffffffffffff168152602001908152602001600020600201549050919050565b606060048054600181600116156101000203166002900480601f016020809104026020016040519081016040528092919081815260200182805460018160011615610100020316600290048015616da05780601f10616d7557610100808354040283529160200191616da0565b820191906000526020600020905b815481529060010190602001808311616d8357829003601f168201915b5050505050905090565b60016003670de0b6b3a764000081616dbe57fe5b040181565b60007f42524f4e5a450000000000000000000000000000000000000000000000000000905090565b600080616df887876190c3565b90506000616e0686866190c3565b90506000616e1483836190c3565b90506000616e3b670de0b6b3a7640000616e36670de0b6b3a764000089618a91565b6190c3565b9050616e47828261894f565b94508494505050505095945050505050565b6000616e66338484618c8a565b6001905092915050565b3373ffffffffffffffffffffffffffffffffffffffff166000357fffffffff00000000000000000000000000000000000000000000000000000000167bffffffffffffffffffffffffffffffffffffffffffffffffffffffff191660003660405180806020018281038252848482818152602001925080828437600081840152601f19601f820116905080830192505050935050505060405180910390a2600560019054906101000a900460ff1615616f91576040517f08c379a000000000000000000000000000000000000000000000000000000000815260040180806020018281038252600b8152602001807f4552525f5245454e54525900000000000000000000000000000000000000000081525060200191505060405180910390fd5b6001600560016101000a81548160ff021916908315150217905550600860009054906101000a900460ff1661702e576040517f08c379a00000000000000000000000000000000000000000000000000000000081526004018080602001828103825260118152602001807f4552525f4e4f545f46494e414c495a454400000000000000000000000000000081525060200191505060405180910390fd5b60006170386123c0565b9050600061704785600061894f565b905060006170558683618a91565b9050600061706382856190c3565b905060008114156170dc576040517f08c379a000000000000000000000000000000000000000000000000000000000815260040180806020018281038252600f8152602001807f4552525f4d4154485f415050524f58000000000000000000000000000000000081525060200191505060405180910390fd5b6170e63388618b23565b617112600560029054906101000a900473ffffffffffffffffffffffffffffffffffffffff1684618b3d565b61711b82618b31565b60008090505b6009805490508110156173d05760006009828154811061713d57fe5b9060005260206000200160009054906101000a900473ffffffffffffffffffffffffffffffffffffffff1690506000600a60008373ffffffffffffffffffffffffffffffffffffffff1673ffffffffffffffffffffffffffffffffffffffff16815260200190815260200160002060030154905060006171bd858361894f565b90506000811415617236576040517f08c379a000000000000000000000000000000000000000000000000000000000815260040180806020018281038252600f8152602001807f4552525f4d4154485f415050524f58000000000000000000000000000000000081525060200191505060405180910390fd5b89898581811061724257fe5b905060200201358110156172be576040517f08c379a000000000000000000000000000000000000000000000000000000000815260040180806020018281038252600d8152602001807f4552525f4c494d49545f4f55540000000000000000000000000000000000000081525060200191505060405180910390fd5b61730a600a60008573ffffffffffffffffffffffffffffffffffffffff1673ffffffffffffffffffffffffffffffffffffffff1681526020019081526020016000206003015482618a91565b600a60008573ffffffffffffffffffffffffffffffffffffffff1673ffffffffffffffffffffffffffffffffffffffff168152602001908152602001600020600301819055508273ffffffffffffffffffffffffffffffffffffffff163373ffffffffffffffffffffffffffffffffffffffff167fe74c91552b64c2e2e7bd255639e004e693bd3e1d01cc33e65610b86afcc1ffed836040518082815260200191505060405180910390a36173c0833383618b4b565b5050508080600101915050617121565b50505050506000600560016101000a81548160ff021916908315150217905550505050565b600881565b600281565b600181565b60008061741187866190c3565b90506000617427670de0b6b3a764000085618a91565b9050617433858261894f565b9050600061744a8a6174458c85618ebc565b6190c3565b90506000617458828561927c565b9050600061746e670de0b6b3a764000083618a91565b905061747a8a8261894f565b955085955050505050509695505050505050565b600a670de0b6b3a7640000816174a057fe5b0481565b6001670de0b6b3a76400006002020381565b6060600560019054906101000a900460ff161561753b576040517f08c379a000000000000000000000000000000000000000000000000000000000815260040180806020018281038252600b8152602001807f4552525f5245454e54525900000000000000000000000000000000000000000081525060200191505060405180910390fd5b600860009054906101000a900460ff166175bd576040517f08c379a00000000000000000000000000000000000000000000000000000000081526004018080602001828103825260118152602001807f4552525f4e4f545f46494e414c495a454400000000000000000000000000000081525060200191505060405180910390fd5b600980548060200260200160405190810160405280929190818152602001828054801561763f57602002820191906000526020600020905b8160009054906101000a900473ffffffffffffffffffffffffffffffffffffffff1673ffffffffffffffffffffffffffffffffffffffff16815260200190600101908083116175f5575b5050505050905090565b670de0b6b3a764000081565b600081565b6060600560019054906101000a900460ff16156176df576040517f08c379a000000000000000000000000000000000000000000000000000000000815260040180806020018281038252600b8152602001807f4552525f5245454e54525900000000000000000000000000000000000000000081525060200191505060405180910390fd5b600980548060200260200160405190810160405280929190818152602001828054801561776157602002820191906000526020600020905b8160009054906101000a900473ffffffffffffffffffffffffffffffffffffffff1673ffffffffffffffffffffffffffffffffffffffff1681526020019060010190808311617717575b5050505050905090565b6000600980549050905090565b3373ffffffffffffffffffffffffffffffffffffffff166000357fffffffff00000000000000000000000000000000000000000000000000000000167bffffffffffffffffffffffffffffffffffffffffffffffffffffffff191660003660405180806020018281038252848482818152602001925080828437600081840152601f19601f820116905080830192505050935050505060405180910390a2600560019054906101000a900460ff1615617899576040517f08c379a000000000000000000000000000000000000000000000000000000000815260040180806020018281038252600b8152602001807f4552525f5245454e54525900000000000000000000000000000000000000000081525060200191505060405180910390fd5b6001600560016101000a81548160ff021916908315150217905550600660009054906101000a900473ffffffffffffffffffffffffffffffffffffffff1673ffffffffffffffffffffffffffffffffffffffff163373ffffffffffffffffffffffffffffffffffffffff1614617977576040517f08c379a00000000000000000000000000000000000000000000000000000000081526004018080602001828103825260128152602001807f4552525f4e4f545f434f4e54524f4c4c4552000000000000000000000000000081525060200191505060405180910390fd5b600a60008273ffffffffffffffffffffffffffffffffffffffff1673ffffffffffffffffffffffffffffffffffffffff16815260200190815260200160002060000160009054906101000a900460ff16617a39576040517f08c379a000000000000000000000000000000000000000000000000000000000815260040180806020018281038252600d8152602001807f4552525f4e4f545f424f554e440000000000000000000000000000000000000081525060200191505060405180910390fd5b600860009054906101000a900460ff1615617abc576040517f08c379a00000000000000000000000000000000000000000000000000000000081526004018080602001828103825260108152602001807f4552525f49535f46494e414c495a45440000000000000000000000000000000081525060200191505060405180910390fd5b6000600a60008373ffffffffffffffffffffffffffffffffffffffff1673ffffffffffffffffffffffffffffffffffffffff1681526020019081526020016000206003015490506000617b1082600061894f565b9050617b60600b54600a60008673ffffffffffffffffffffffffffffffffffffffff1673ffffffffffffffffffffffffffffffffffffffff16815260200190815260200160002060020154618a91565b600b819055506000600a60008573ffffffffffffffffffffffffffffffffffffffff1673ffffffffffffffffffffffffffffffffffffffff1681526020019081526020016000206001015490506000600160098054905003905060098181548110617bc757fe5b9060005260206000200160009054906101000a900473ffffffffffffffffffffffffffffffffffffffff1660098381548110617bff57fe5b9060005260206000200160006101000a81548173ffffffffffffffffffffffffffffffffffffffff021916908373ffffffffffffffffffffffffffffffffffffffff16021790555081600a600060098581548110617c5957fe5b9060005260206000200160009054906101000a900473ffffffffffffffffffffffffffffffffffffffff1673ffffffffffffffffffffffffffffffffffffffff1673ffffffffffffffffffffffffffffffffffffffff168152602001908152602001600020600101819055506009805480617cd057fe5b6001900381819060005260206000200160006101000a81549073ffffffffffffffffffffffffffffffffffffffff02191690559055604051806080016040528060001515815260200160008152602001600081526020016000815250600a60008773ffffffffffffffffffffffffffffffffffffffff1673ffffffffffffffffffffffffffffffffffffffff16815260200190815260200160002060008201518160000160006101000a81548160ff021916908315150217905550602082015181600101556040820151816002015560608201518160030155905050617dc08533617dbb8787618a91565b618b4b565b617ded85600560029054906101000a900473ffffffffffffffffffffffffffffffffffffffff1685618b4b565b505050506000600560016101000a81548160ff02191690831515021790555050565b6000600560019054906101000a900460ff1615617e94576040517f08c379a000000000000000000000000000000000000000000000000000000000815260040180806020018281038252600b8152602001807f4552525f5245454e54525900000000000000000000000000000000000000000081525060200191505060405180910390fd5b600754905090565b6000617f24600160003373ffffffffffffffffffffffffffffffffffffffff1673ffffffffffffffffffffffffffffffffffffffff16815260200190815260200160002060008573ffffffffffffffffffffffffffffffffffffffff1673ffffffffffffffffffffffffffffffffffffffff1681526020019081526020016000205483618ebc565b600160003373ffffffffffffffffffffffffffffffffffffffff1673ffffffffffffffffffffffffffffffffffffffff16815260200190815260200160002060008573ffffffffffffffffffffffffffffffffffffffff1673ffffffffffffffffffffffffffffffffffffffff168152602001908152602001600020819055508273ffffffffffffffffffffffffffffffffffffffff163373ffffffffffffffffffffffffffffffffffffffff167f8c5be1e5ebec7d5bd14f71427d1e84f3dd0314c0f7b2291e5b200ac8c7c3b925600160003373ffffffffffffffffffffffffffffffffffffffff1673ffffffffffffffffffffffffffffffffffffffff16815260200190815260200160002060008773ffffffffffffffffffffffffffffffffffffffff1673ffffffffffffffffffffffffffffffffffffffff168152602001908152602001600020546040518082815260200191505060405180910390a36001905092915050565b6000600160008473ffffffffffffffffffffffffffffffffffffffff1673ffffffffffffffffffffffffffffffffffffffff16815260200190815260200160002060008373ffffffffffffffffffffffffffffffffffffffff1673ffffffffffffffffffffffffffffffffffffffff16815260200190815260200160002054905092915050565b6032670de0b6b3a76400000281565b3373ffffffffffffffffffffffffffffffffffffffff166000357fffffffff00000000000000000000000000000000000000000000000000000000167bffffffffffffffffffffffffffffffffffffffffffffffffffffffff191660003660405180806020018281038252848482818152602001925080828437600081840152601f19601f820116905080830192505050935050505060405180910390a2600660009054906101000a900473ffffffffffffffffffffffffffffffffffffffff1673ffffffffffffffffffffffffffffffffffffffff163373ffffffffffffffffffffffffffffffffffffffff1614618286576040517f08c379a00000000000000000000000000000000000000000000000000000000081526004018080602001828103825260128152602001807f4552525f4e4f545f434f4e54524f4c4c4552000000000000000000000000000081525060200191505060405180910390fd5b600a60008473ffffffffffffffffffffffffffffffffffffffff1673ffffffffffffffffffffffffffffffffffffffff16815260200190815260200160002060000160009054906101000a900460ff1615618349576040517f08c379a000000000000000000000000000000000000000000000000000000000815260040180806020018281038252600c8152602001807f4552525f49535f424f554e44000000000000000000000000000000000000000081525060200191505060405180910390fd5b600860009054906101000a900460ff16156183cc576040517f08c379a00000000000000000000000000000000000000000000000000000000081526004018080602001828103825260108152602001807f4552525f49535f46494e414c495a45440000000000000000000000000000000081525060200191505060405180910390fd5b600860098054905010618447576040517f08c379a000000000000000000000000000000000000000000000000000000000815260040180806020018281038252600e8152602001807f4552525f4d41585f544f4b454e5300000000000000000000000000000000000081525060200191505060405180910390fd5b60405180608001604052806001151581526020016009805490508152602001600081526020016000815250600a60008573ffffffffffffffffffffffffffffffffffffffff1673ffffffffffffffffffffffffffffffffffffffff16815260200190815260200160002060008201518160000160006101000a81548160ff02191690831515021790555060208201518160010155604082015181600201556060820151816003015590505060098390806001815401808255809150509060018203906000526020600020016000909192909190916101000a81548173ffffffffffffffffffffffffffffffffffffffff021916908373ffffffffffffffffffffffffffffffffffffffff16021790555050618563838383612ccb565b505050565b6002670de0b6b3a76400008161857a57fe5b0481565b6000600560019054906101000a900460ff1615618603576040517f08c379a000000000000000000000000000000000000000000000000000000000815260040180806020018281038252600b8152602001807f4552525f5245454e54525900000000000000000000000000000000000000000081525060200191505060405180910390fd5b600a60008373ffffffffffffffffffffffffffffffffffffffff1673ffffffffffffffffffffffffffffffffffffffff16815260200190815260200160002060000160009054906101000a900460ff166186c5576040517f08c379a000000000000000000000000000000000000000000000000000000000815260040180806020018281038252600d8152602001807f4552525f4e4f545f424f554e440000000000000000000000000000000000000081525060200191505060405180910390fd5b6000600a60008473ffffffffffffffffffffffffffffffffffffffff1673ffffffffffffffffffffffffffffffffffffffff16815260200190815260200160002060020154905061871881600b546190c3565b915050919050565b6000600560019054906101000a900460ff16156187a5576040517f08c379a000000000000000000000000000000000000000000000000000000000815260040180806020018281038252600b8152602001807f4552525f5245454e54525900000000000000000000000000000000000000000081525060200191505060405180910390fd5b600a60008373ffffffffffffffffffffffffffffffffffffffff1673ffffffffffffffffffffffffffffffffffffffff16815260200190815260200160002060000160009054906101000a900460ff16618867576040517f08c379a000000000000000000000000000000000000000000000000000000000815260040180806020018281038252600d8152602001807f4552525f4e4f545f424f554e440000000000000000000000000000000000000081525060200191505060405180910390fd5b600a60008373ffffffffffffffffffffffffffffffffffffffff1673ffffffffffffffffffffffffffffffffffffffff168152602001908152602001600020600301549050919050565b6000806188be85886190c3565b905060006188cc8786618a91565b905060006188da88836190c3565b905060006188e8828561927c565b90506188fc81670de0b6b3a7640000618a91565b9050618910670de0b6b3a764000087618a91565b945061892561891f8c8361894f565b866190c3565b9450849450505050509695505050505050565b6000600660149054906101000a900460ff16905090565b6000808284029050600084148061896e57508284828161896b57fe5b04145b6189e0576040517f08c379a00000000000000000000000000000000000000000000000000000000081526004018080602001828103825260108152602001807f4552525f4d554c5f4f564552464c4f570000000000000000000000000000000081525060200191505060405180910390fd5b60006002670de0b6b3a7640000816189f457fe5b048201905081811015618a6f576040517f08c379a00000000000000000000000000000000000000000000000000000000081526004018080602001828103825260108152602001807f4552525f4d554c5f4f564552464c4f570000000000000000000000000000000081525060200191505060405180910390fd5b6000670de0b6b3a76400008281618a8257fe5b04905080935050505092915050565b6000806000618aa085856193fa565b915091508015618b18576040517f08c379a00000000000000000000000000000000000000000000000000000000081526004018080602001828103825260118152602001807f4552525f5355425f554e444552464c4f5700000000000000000000000000000081525060200191505060405180910390fd5b819250505092915050565b618b2d8282619423565b5050565b618b3a81619432565b50565b618b4782826195eb565b5050565b60008373ffffffffffffffffffffffffffffffffffffffff1663a9059cbb84846040518363ffffffff1660e01b8152600401808373ffffffffffffffffffffffffffffffffffffffff1673ffffffffffffffffffffffffffffffffffffffff16815260200182815260200192505050602060405180830381600087803b158015618bd457600080fd5b505af1158015618be8573d6000803e3d6000fd5b505050506040513d6020811015618bfe57600080fd5b8101908080519060200190929190505050905080618c84576040517f08c379a000000000000000000000000000000000000000000000000000000000815260040180806020018281038252600f8152602001807f4552525f45524332305f46414c5345000000000000000000000000000000000081525060200191505060405180910390fd5b50505050565b806000808573ffffffffffffffffffffffffffffffffffffffff1673ffffffffffffffffffffffffffffffffffffffff168152602001908152602001600020541015618d3e576040517f08c379a00000000000000000000000000000000000000000000000000000000081526004018080602001828103825260148152602001807f4552525f494e53554646494349454e545f42414c00000000000000000000000081525060200191505060405180910390fd5b618d866000808573ffffffffffffffffffffffffffffffffffffffff1673ffffffffffffffffffffffffffffffffffffffff1681526020019081526020016000205482618a91565b6000808573ffffffffffffffffffffffffffffffffffffffff1673ffffffffffffffffffffffffffffffffffffffff16815260200190815260200160002081905550618e106000808473ffffffffffffffffffffffffffffffffffffffff1673ffffffffffffffffffffffffffffffffffffffff1681526020019081526020016000205482618ebc565b6000808473ffffffffffffffffffffffffffffffffffffffff1673ffffffffffffffffffffffffffffffffffffffff168152602001908152602001600020819055508173ffffffffffffffffffffffffffffffffffffffff168373ffffffffffffffffffffffffffffffffffffffff167fddf252ad1be2c89b69c2b068fc378daa952ba7f163c4a11628f55a4df523b3ef836040518082815260200191505060405180910390a3505050565b600080828401905083811015618f3a576040517f08c379a00000000000000000000000000000000000000000000000000000000081526004018080602001828103825260108152602001807f4552525f4144445f4f564552464c4f570000000000000000000000000000000081525060200191505060405180910390fd5b8091505092915050565b60008373ffffffffffffffffffffffffffffffffffffffff166323b872dd8430856040518463ffffffff1660e01b8152600401808473ffffffffffffffffffffffffffffffffffffffff1673ffffffffffffffffffffffffffffffffffffffff1681526020018373ffffffffffffffffffffffffffffffffffffffff1673ffffffffffffffffffffffffffffffffffffffff1681526020018281526020019350505050602060405180830381600087803b15801561900157600080fd5b505af1158015619015573d6000803e3d6000fd5b505050506040513d602081101561902b57600080fd5b81019080805190602001909291905050509050806190b1576040517f08c379a000000000000000000000000000000000000000000000000000000000815260040180806020018281038252600f8152602001807f4552525f45524332305f46414c5345000000000000000000000000000000000081525060200191505060405180910390fd5b50505050565b6190c0816195fa565b50565b60008082141561913b576040517f08c379a000000000000000000000000000000000000000000000000000000000815260040180806020018281038252600c8152602001807f4552525f4449565f5a45524f000000000000000000000000000000000000000081525060200191505060405180910390fd5b6000670de0b6b3a76400008402905060008414806191695750670de0b6b3a764000084828161916657fe5b04145b6191db576040517f08c379a00000000000000000000000000000000000000000000000000000000081526004018080602001828103825260108152602001807f4552525f4449565f494e5445524e414c0000000000000000000000000000000081525060200191505060405180910390fd5b6000600284816191e757fe5b048201905081811015619262576040517f08c379a00000000000000000000000000000000000000000000000000000000081526004018080602001828103825260108152602001807f4552525f4449565f494e5445524e414c0000000000000000000000000000000081525060200191505060405180910390fd5b600084828161926d57fe5b04905080935050505092915050565b600060018310156192f5576040517f08c379a00000000000000000000000000000000000000000000000000000000081526004018080602001828103825260158152602001807f4552525f42504f575f424153455f544f4f5f4c4f57000000000000000000000081525060200191505060405180910390fd5b6001670de0b6b3a764000060020203831115619379576040517f08c379a00000000000000000000000000000000000000000000000000000000081526004018080602001828103825260168152602001807f4552525f42504f575f424153455f544f4f5f484947480000000000000000000081525060200191505060405180910390fd5b6000619384836196ff565b905060006193928483618a91565b905060006193a8866193a38561971b565b619736565b905060008214156193be578093505050506193f4565b60006193e187846402540be400670de0b6b3a7640000816193db57fe5b046197bb565b90506193ed828261894f565b9450505050505b92915050565b6000808284106194125782840360009150915061941c565b8383036001915091505b9250929050565b61942e823083618c8a565b5050565b806000803073ffffffffffffffffffffffffffffffffffffffff1673ffffffffffffffffffffffffffffffffffffffff1681526020019081526020016000205410156194e6576040517f08c379a00000000000000000000000000000000000000000000000000000000081526004018080602001828103825260148152602001807f4552525f494e53554646494349454e545f42414c00000000000000000000000081525060200191505060405180910390fd5b61952e6000803073ffffffffffffffffffffffffffffffffffffffff1673ffffffffffffffffffffffffffffffffffffffff1681526020019081526020016000205482618a91565b6000803073ffffffffffffffffffffffffffffffffffffffff1673ffffffffffffffffffffffffffffffffffffffff1681526020019081526020016000208190555061957c60025482618a91565b600281905550600073ffffffffffffffffffffffffffffffffffffffff163073ffffffffffffffffffffffffffffffffffffffff167fddf252ad1be2c89b69c2b068fc378daa952ba7f163c4a11628f55a4df523b3ef836040518082815260200191505060405180910390a350565b6195f6308383618c8a565b5050565b6196426000803073ffffffffffffffffffffffffffffffffffffffff1673ffffffffffffffffffffffffffffffffffffffff1681526020019081526020016000205482618ebc565b6000803073ffffffffffffffffffffffffffffffffffffffff1673ffffffffffffffffffffffffffffffffffffffff1681526020019081526020016000208190555061969060025482618ebc565b6002819055503073ffffffffffffffffffffffffffffffffffffffff16600073ffffffffffffffffffffffffffffffffffffffff167fddf252ad1be2c89b69c2b068fc378daa952ba7f163c4a11628f55a4df523b3ef836040518082815260200191505060405180910390a350565b6000670de0b6b3a76400006197138361971b565b029050919050565b6000670de0b6b3a7640000828161972e57fe5b049050919050565b60008060006002848161974557fe5b06141561975a57670de0b6b3a764000061975c565b835b90506002838161976857fe5b0492505b600083146197b15761977e848561894f565b935060006002848161978c57fe5b061461979f5761979c818561894f565b90505b600283816197a957fe5b04925061976c565b8091505092915050565b6000808390506000806197d687670de0b6b3a76400006193fa565b915091506000670de0b6b3a76400009050600081905060008090506000600190505b8884106198ac576000670de0b6b3a76400008202905060008061982c8a61982785670de0b6b3a7640000618a91565b6193fa565b915091506198438761983e848c61894f565b61894f565b965061984f87846190c3565b96506000871415619862575050506198ac565b871561986d57841594505b801561987857841594505b841561988f576198888688618a91565b955061989c565b6198998688618ebc565b95505b50505080806001019150506197f8565b50819650505050505050939250505056fea265627a7a72315820773a71c61e215602e24c70893d75e45204a5baf6189a18c1579db0324ed8c9af64736f6c634300050c0032",
  "devdoc": {
    "methods": {}
  },
  "userdoc": {
    "methods": {
      "calcInGivenOut(uint256,uint256,uint256,uint256,uint256,uint256)": {
        "notice": "******************************************************************************************** // calcInGivenOut                                                                            // // aI = tokenAmountIn                                                                        // // bO = tokenBalanceOut               /  /     bO      \\    (wO / wI)      \\                 // // bI = tokenBalanceIn          bI * |  | ------------  | ^            - 1  |                // // aO = tokenAmountOut    aI =        \\  \\ ( bO - aO ) /                   /                 // // wI = tokenWeightIn           --------------------------------------------                 // // wO = tokenWeightOut                          ( 1 - sF )                                   // // sF = swapFee                                                                              //*********************************************************************************************"
      },
      "calcOutGivenIn(uint256,uint256,uint256,uint256,uint256,uint256)": {
        "notice": "******************************************************************************************** // calcOutGivenIn                                                                            // // aO = tokenAmountOut                                                                       // // bO = tokenBalanceOut                                                                      // // bI = tokenBalanceIn              /      /            bI             \\    (wI / wO) \\      // // aI = tokenAmountIn    aO = bO * |  1 - | --------------------------  | ^            |     // // wI = tokenWeightIn               \\      \\ ( bI + ( aI * ( 1 - sF )) /              /      // // wO = tokenWeightOut                                                                       // // sF = swapFee                                                                              //*********************************************************************************************"
      },
      "calcPoolInGivenSingleOut(uint256,uint256,uint256,uint256,uint256,uint256)": {
        "notice": "******************************************************************************************** // calcPoolInGivenSingleOut                                                                  // // pAi = poolAmountIn               // /               tAo             \\\\     / wO \\     \\   // // bO = tokenBalanceOut            // | bO - -------------------------- |\\   | ---- |     \\  // // tAo = tokenAmountOut      pS - ||   \\     1 - ((1 - (tO / tW)) * sF)/  | ^ \\ tW /  * pS | // // ps = poolSupply                 \\\\ -----------------------------------/                /  // // wO = tokenWeightOut  pAi =       \\\\               bO                 /                /   // // tW = totalWeight           -------------------------------------------------------------  // // sF = swapFee                                        ( 1 - eF )                            // // eF = exitFee                                                                              //*********************************************************************************************"
      },
      "calcPoolOutGivenSingleIn(uint256,uint256,uint256,uint256,uint256,uint256)": {
        "notice": "******************************************************************************************** // calcPoolOutGivenSingleIn                                                                  // // pAo = poolAmountOut         /                                              \\              // // tAi = tokenAmountIn        ///      /     //    wI \\      \\\\       \\     wI \\             // // wI = tokenWeightIn        //| tAi *| 1 - || 1 - --  | * sF || + tBi \\    --  \\            // // tW = totalWeight     pAo=||  \\      \\     \\\\    tW /      //         | ^ tW   | * pS - pS // // tBi = tokenBalanceIn      \\\\  ------------------------------------- /        /            // // pS = poolSupply            \\\\                    tBi               /        /             // // sF = swapFee                \\                                              /              //*********************************************************************************************"
      },
      "calcSingleInGivenPoolOut(uint256,uint256,uint256,uint256,uint256,uint256)": {
        "notice": "******************************************************************************************** // calcSingleInGivenPoolOut                                                                  // // tAi = tokenAmountIn              //(pS + pAo)\\     /    1    \\\\                           // // pS = poolSupply                 || ---------  | ^ | --------- || * bI - bI                // // pAo = poolAmountOut              \\\\    pS    /     \\(wI / tW)//                           // // bI = balanceIn          tAi =  --------------------------------------------               // // wI = weightIn                              /      wI  \\                                   // // tW = totalWeight                          |  1 - ----  |  * sF                            // // sF = swapFee                               \\      tW  /                                   //*********************************************************************************************"
      },
      "calcSingleOutGivenPoolIn(uint256,uint256,uint256,uint256,uint256,uint256)": {
        "notice": "******************************************************************************************** // calcSingleOutGivenPoolIn                                                                  // // tAo = tokenAmountOut            /      /                                             \\\\   // // bO = tokenBalanceOut           /      // pS - (pAi * (1 - eF)) \\     /    1    \\      \\\\  // // pAi = poolAmountIn            | bO - || ----------------------- | ^ | --------- | * b0 || // // ps = poolSupply                \\      \\\\          pS           /     \\(wO / tW)/      //  // // wI = tokenWeightIn      tAo =   \\      \\                                             //   // // tW = totalWeight                    /     /      wO \\       \\                             // // sF = swapFee                    *  | 1 - |  1 - ---- | * sF  |                            // // eF = exitFee                        \\     \\      tW /       /                             //*********************************************************************************************"
      },
      "calcSpotPrice(uint256,uint256,uint256,uint256,uint256)": {
        "notice": "******************************************************************************************** // calcSpotPrice                                                                             // // sP = spotPrice                                                                            // // bI = tokenBalanceIn                ( bI / wI )         1                                  // // bO = tokenBalanceOut         sP =  -----------  *  ----------                             // // wI = tokenWeightIn                 ( bO / wO )     ( 1 - sF )                             // // wO = tokenWeightOut                                                                       // // sF = swapFee                                                                              //*********************************************************************************************"
      }
    }
  }
}